:020000040000fa
:080000000001040000000000f3
:020000040000fa
:04000800d002000022
:020000040000fa
:04000c00e602000008
:020000040000fa
:04001400fc020000ea
:020000040000fa
:0400180012030000cf
:020000040000fa
:0400480010020000a2
:020000040000fa
:04007400b4020000d2
:020000040000fa
:10020000efa420000eff27000e0188000000000070
:10021000000020000000e000020032000001200089
:100220002002880014000700130107000000e0000e
:1002300003003a0060322200010020000200370073
:100240000000200001002000810f7000010032003a
:1002500014000700000020000000e000020032004f
:100260000000020000000000322602000000000032
:100270000040da000000fe004440a900c004200055
:100280000000e00003003200002020009001880000
:100290004440a800000006008a1f78008b1f7800e9
:1002a00000000600a1028800800478000000eb0036
:1002b0001f003700e284440054a0b4009905ba003e
:1002c000e284440054a0b4009906ba00e2844400d9
:1002d00054a0b4000006eb00476fde00fd07b2003b
:1002e000ae018800636ce10003003a00eaff0700fa
:1002f0000000eb000e003700606ce10008003a00df
:10030000004deb000a05e800020039003420ec0043
:100310000af0a0008b05e900f9ff3e000400370059
:100320006168e100010032000086eb000b0007006d
:1003300019c7ba001905ba000e04e00003003a001c
:100340000a00e000dbff3a0000000600fe07b200f2
:10035000ae0288008a047800f5ff37000cd0a300b5
:10036000e20f4d001c00390089027800354dba00bb
:100370000a05e800020039003420ec000af0a00071
:100380008b05e9000f003200254dba000a05e80090
:10039000020039003420ec000af0a0008b05e900cf
:1003a000080032000c00e0000600320015cdba0053
:1003b0000a05e800020039003420ec000af0a00031
:1003c0008b05e9008984e80054a0b4000b00e0002c
:1003d000e2ff3a00000006009902ba00055d7800cd
:1003e0008b05e900f7ff3200c82ade00055d7800c2
:1003f0008b05e900f3ff32000c00e000f1ff320052
:1004000019ddba00eeff3700d62604000000000018
:10041000e026040000000000e826040000000000c0
:100420003600f800809fbe00829fbe00849fbe0001
:10043000869fbe003200f8003400f8001000200053
:10044000a001880000202000900188000200fa002e
:100450000040eb00004f7800360037001e80fb00a4
:100460006a00b90080007800e0962000008040001b
:10047000100078000000e0002d0032001e81fb001b
:100480006a10b90000007800e6004000e096200005
:10049000008040001000be0061004000e080480085
:1004a0006a11b90082017800429720000281410060
:1004b0000089be001e80fb006a00b90000007800c1
:1004c000e6004000e0962000008040001001be00e1
:1004d0001e80fb006a00b900000078008080e80000
:1004e000e0962000008040001000be00800f510008
:1004f000818f59000e003a001e80fb006a00b9008f
:1005000080007800e0962000008040001000780015
:10051000000001001e80fb006a00b9008000780026
:1005200040972000008140006000b8000089be00b4
:100530001e4fe8001e407800e94f5000c7ff36000c
:100540008900a9000080fa003400f9003200f900a7
:100550004f03be004f02be004f01be004f00be0061
:100560003600f900004006003200f8003400f800c0
:10057000881f780018002000a801880008202000ab
:10058000980188004f0478000000fa008a60a900f2
:100590000080fa003400f9003200f9000040060043
:1005a0003200f8003400f800881f7800180020009e
:1005b000a801880008202000980188004f047800d6
:1005c0000000fa008020a900ffff37003200f80089
:1005d0003400f800881f780018002000a801880067
:1005e00008202000980188004f0478000000fa00dd
:1005f0008060a900ffff37003200f8003400f800e7
:10060000881f780018002000a8018800082020001a
:10061000980188004f0478000000fa008040a9008b
:10062000ffff37003200f8003400f800881f780020
:1006300018002000a80188000820200098018800e8
:100640004f0478000000fa008080a900ffff370007
:100650000600fa00000f78001107980022079800a2
:100660001e009000ae009000740c07002e00900059
:100670000080fa000000060000000500889fbe0010
:100680008a9fbe008c1f78006b0007007200330049
:1006900003866c006450e1002e0032006420e1000b
:1006a000330032006150e1002f0032006120e10090
:1006b0003100320085855500eb07b00009002000ad
:1006c00008042000050037000804440089844c0019
:1006d0000a0031000603430087834b0000015300ea
:1006e00081815b00f8ff33000203be000800a00018
:1006f0000804440089844c00f6ff3900c639dd0047
:100700008301730001003200130020008904d1002e
:100710000884d3000998a300050032000800a70050
:100720000300a0008904d1000884d3008b05e800f1
:100730008904d1000884d3000001eb000281d200bb
:100740001700070001f0a1000cf0a70001f0a000c5
:100750004a0037006420e1004c0032000801be006e
:100760000200be00f7ff37006120e10047003200c1
:100770006000b800f3ff37000000200001f82700f8
:10078000f0ff37001400200043003700f4ff2f0073
:10079000410037004f89de008201780059003700a0
:1007a00081002000618055000b003d000b002000ff
:1007b00061fe2f000100e1001d0034008281710004
:1007c000610164008904d1000884d3000000e800be
:1007d000faff3a007100200061006400030070001d
:1007e000020060000900320061044400e0844c0013
:1007f0000988a500050032008b05e8006808e100c3
:1008000002003a008904d1000884d300f20f2000ce
:100810000258e10005003d00c75ddd00f907b200a8
:100820008980750008007800000006000bf827009a
:100830008b007800000005000004be007000070077
:100840000003be000405be000200be006c000700ed
:10085000844f7500000006000200be006450e100f5
:10086000050036006420e100020036000968a3009c
:1008700001003a000800be000160a0004f067800a9
:100880004f05be004f04be0000000600f0ff2f0021
:10089000f1ff2700f9ff3700889fbe008a9fbe0046
:1008a000841f7800e4ff07004f0078001100330038
:1008b000f0ff2f00838f6c0006003b0004056500ed
:1008c0000a00a7000800370009f0a6001000200069
:1008d00008003700820f5400838f5c00030039004a
:1008e0001000200001003e000000200009f0a700d9
:1008f0000000ea004f05be004f04be000000e0000b
:1009000000000600881f7800030478000300e00060
:1009100007003d0060001000e08018006001190031
:10092000e081190002003b0001f02d0003003700b8
:100930000400070008f0a70001f0a0004f047800b1
:1009400000000600889fbe008a9fbe0000827000e3
:100950000402710004827100260032000004be000f
:100960000200be006011b8006b0920009502200053
:100970000182cf000a0039000541b1000082cf009a
:10098000070039000541b1000982cf000400390099
:100990000541b1000882cf00010039000541b100d6
:1009a00005425200120032000a003b0082817100b1
:1009b000610164008100d1000080d3008984d300ec
:1009c0000884d3008b05e8000442e800f7ff3a00f2
:1009d000070037000804440089844c0000004800e8
:1009e000818048008b05e9000442e900f9ff3a00e4
:1009f0006bff07004f05be004f04be00000006005d
:100a0000c70ade00f107b200f50fb200080032009d
:100a1000e1cf4200020032000170a0002400050076
:100a2000810f700001003200040805004400050039
:100a3000810f700002003a00140005008502e900f1
:100a40000000400081c04800fcff3b000170a00096
:100a5000240005000000fa0068815700cfb8970015
:100a6000e0a120003c0407000080fa00000006001e
:100a70000000fa0068815700cfb89700e0a120007d
:100a8000350407000080fa000000060080017800ad
:100a900002003700815978000201e9000200e000fd
:100aa000fcff3a0000000600889fbe000004be0064
:100ab000050037000000fb008900780014000700e3
:100ac000e10f400004003200384078000004e000ec
:100ad000f8ff3a000000eb004f04be0000000600e3
:100ae000881f7800e1a12000efff070000047800d4
:100af000e1a12000a0002000050007000800780008
:100b00004f04780000000600e1a12000000037003b
:100b1000889fbe0001047800b80090008084eb003c
:100b20000118a3003a003200180190000198a300b8
:100b300002003a000200e00035003a000190a000f7
:100b40003104980080047800f90fb2000200e00040
:100b500002003a0028009000000c7800ea8f540050
:100b600005003a000178a30003003a0088007800ed
:100b7000d0002000e6ff070018009000d800900089
:100b8000810f50000b0032000000e80010049800b4
:100b90001800780009487800000ce80011c0b30084
:100ba00080a4200001487800ea8f540018003a0021
:100bb000050037008800780009407800170007001a
:100bc0008004780012003700380090000088a300ed
:100bd0000f00320018019000a8009000480090001b
:100be0009bfe070098009000810f50000400320027
:100bf000380090000003b300300498008084eb00bc
:100c00000000eb001004980028009000000c780011
:100c1000090078004f04be00000006000200fa0040
:100c2000889fbe00a0ff9f0001047800380090005c
:100c30000068a30033003a00e200600005003a00bb
:100c40000003b30030049800110498000080eb000a
:100c50002e003700d80490000900e00006003a009a
:100c600012002000e68057004800900078fe070040
:100c70001904980023003700a80090000100e0004c
:100c800008003a00b1a4200021049800010c78006b
:100c90002100200051049800110498000030a000a9
:100ca0003004980018019000a800900048009000bf
:100cb00067fe0700280090008080eb001104980078
:100cc000aff8970001487800000ce8002ff8970073
:100cd000ea4f50000b003a00380090000088a30053
:100ce0000800320018019000a80090004800900011
:100cf00057fe07000000eb0010049800a8009000c9
:100d0000010c7800aff897000100fb004f04be0013
:100d10000080fa00000006002800fa00889fbe004c
:100d20008a9fbe008c9fbe000706780087866900f8
:100d30000c003b00030478008704780008f0a10051
:100d400009f0a100840f5000858f5800860f5900cc
:100d5000890f5c00030033000cf0a20001003a0090
:100d60000cf0a100ff0007006400e1005f0032000a
:100d7000780147006408e100610032006c0147001f
:100d8000748557003200be001201be003a04be0056
:100d90001a05be001e039000be0a90008503530092
:100da00006003d000004fd008104fd000205fd0079
:100db0008305fd008703ea00050378000df8a30012
:100dc0000400320060041400e0841c0060051d0073
:100dd000e0851d006022b8007d0320000d38e10091
:100de0008006eb000b0039004433dd00f300b20055
:100df0008301730039003700848272000d0278008d
:100e0000e10664008b85d1000a85d3008984d30074
:100e10000884d3008703e900f7ff3b000800400087
:100e2000898048000a0149008b81490004003b0089
:100e300060001000e080180060011900e0811900d6
:100e40000358a300090032008d8272008482720070
:100e5000610260008301d1000281d3008180d30050
:100e60000080d3000603e8001b0037000348a300fe
:100e700017003a000600e000170034000603e900fe
:100e80000d00a300000048008180480002014900d5
:100e9000838149000348a3000f003a000600e000e8
:100ea000090034000603e90000004000818048008a
:100eb000020149008381490001003a000003eb0070
:100ec0000348a300f5ff32006022b800020037009b
:100ed00084827200618266007600070003f0a10040
:100ee0000cf0a70003f0a000b20037006401470037
:100ef0006408e10002003a000df8a300aa003a00dd
:100f00003200be001201be00aa003700000000003f
:100f10008f1fd100ad0107008f87e9000000e000be
:100f200000000600809feb00a80107008f87e90002
:100f30000000e000000006002800fa00889fbe00c4
:100f40008a9fbe008c9fbe0003866b008500070051
:100f50006400e100440032006408e1004a0032000d
:100f60006100e100460032006108e1004900320002
:100f7000ec0647006000b8003d02be003d03be0025
:100f8000f48657006011b8003d04be003d05be0068
:100f90007d0320000b0037000000a0008d06e90053
:100fa000130032000402420085824a0006034b000f
:100fb00087834b0000004000818048000201490007
:100fc000838149000802520089825a000a035b00ab
:100fd0008b835b00f0ff3b000802420089824a00dd
:100fe0000a034b008b834b008d06e900edff3a00ae
:100ff0008482720086827200f707b20087827200d4
:1010000001003200150020001e0490003e0b9000ed
:1010100006035400e63fb0000368a3000700320057
:101020000000a7000500a0008301d1000281d300c9
:101030008180d3000080d3000603e8008301d10043
:101040000281d3008180d3000080d3000002eb0036
:101050000482d2001700070003f0a1000cf0a700e3
:1010600003f0a00053003700640247006408e10069
:101070004d0032003400be003401be00f6ff3700e0
:101080006108e100480032006011b8006000b8005b
:10109000f1ff370003ff270002002000fbff3700ad
:1010a000801feb00490107008f87e9000000e00086
:1010b000000006001800200057002000080453001c
:1010c0000d003d000600200097fc2f000740e100c6
:1010d0001e00340084827200610260008301d1002e
:1010e0000281d3008180d3000080d3000804e8008f
:1010f000f8ff3a0047002000610460000504740016
:10110000040464000d00320061004000e0804800eb
:1011100060014900e081490003b8a50007003200e2
:101120000603e8006538e10004003a008301d100bd
:101130000281d3008180d3000080d300f87f20009b
:101140000830e10003003500080378006000b800b3
:101150006011b8004433dd00f300b2008301730076
:1011600000000600680447000294be000094be0020
:10117000fc0447008694be008494be0009007800f9
:101180005b0107000800780059010700990078000a
:10119000814f70000b003b000800be0034010700c7
:1011a0004f00b10003003700f3ff2700f2ff2f00cc
:1011b0006110b9004f06be004f05be004f04be00cf
:1011c0000080fa0000000600810378000cfe070092
:1011d0000001be006000b8000478a30013003a00cc
:1011e0006220e10015003e000d0039008301d100ae
:1011f0000281d3008180d3008301d1000281d3001a
:101200008180d3008301d1000281d3008180d3008b
:101210000538b000c42add00f300b20083817200fb
:1012200007f0a70003f0a00000000600f3ff27006e
:10123000f2ff2f006110b900fbff370003ff27000a
:10124000f7ff37001400fa00889fbe008a9fbe0097
:101250008c9fbe000004be000205be00680047006f
:101260000a90be000890be00210107000070a70090
:101270000bf0a1000bf8a30020003a009e0990009b
:101280000e099000fe0090006e0090009e029000fb
:101290003443200084825200c6ff32000a003c0022
:1012a000b4fc2f000428e100140034008301d100b5
:1012b0000281d3008180d3000080d3008502e80042
:1012c000faff3a00bbff3700b40020000428e10019
:1012d00007003c00000040008180480002014900f6
:1012e000838149008502e900faff3a00b1ff370027
:1012f0000300280002002000010037006011b80040
:101300006000b800abff37006011b8001f01370064
:101310001400fa00889fbe008a9fbe008c9fbe000a
:10132000040678000004be000205be006800470005
:101330000a90be000890be00ed0007006200e100c8
:101340000800be000a01be00040020000b003a00a5
:101350001e029000e43fb1006e009000fe0090007d
:101360000e0990009e099000f300b20005fe2300d4
:10137000858171000bf0a70003f0a000040e780037
:101380008cff3700000000002800fa00889fbe0094
:101390008a9fbe008c9fbe0003866b0071ff070012
:1013a0000028a30064003a000128a30067003a0067
:1013b0000008a30062003a000108a30065003a009b
:1013c0001e009000be08900081064000ed3fb10075
:1013d000f4805700ee019000111ab8008e099000b9
:1013e000311bb8009e099000311cb800511db80097
:1013f000f485570046000700fe0190003a00070000
:101400008b85e8003e0007008e0990004000070031
:10141000ee019000340007008b85e80038000700db
:101420008e099000400007009e0990001b18b8002c
:10143000890440000a854800fe019000340007003e
:101440008b85e80038000700ee01900030000700af
:101450008e0990001b18b800890440000a854800d6
:101460000a98a30008003a000402420085824a005c
:1014700006034b0087834b0008044c0089844c0012
:101480000a054d008d06e900848272008502730012
:101490004c3add0085027200010032001500200088
:1014a000443ade001400b2004538de00cb45dd00d2
:1014b0000b007000c540de00cb4ddd008b8070005e
:1014c0004549de00cb55dd000b017100c551de0042
:1014d0000d037800f7fe070003f0a1000cf0a70051
:1014e00003f0a00033ff37001b18b800850240004e
:1014f00006834800e0834b0060044c00070037007f
:101500001b18b8000603400087834800faff370025
:101510001b18b8008703400008844800e0844c0092
:1015200060054d00000006001b18b80008044000cc
:1015300089844800faff37000108a3001aff3a0027
:101540005800be005801be00e3ff37000008a300aa
:1015500015ff3a0009047800f9ff37000000000089
:1015600007f0a200ecfd37006022b8000602200060
:101570000000d0008180d2000482d2008582d20097
:101580000000a0000202520083825a0003003100d2
:101590000202420083824a000000a1000603e90023
:1015a000f3ff3a0000000600efff07000400be0052
:1015b00000000600020ab900001bb9000200b800d2
:1015c000810042008100430000000600889fbe00a9
:1015d0008a9fbe008c9fbe000404be000605be00ac
:1015e000809fbe00829fbe002f0007000406780087
:1015f0000800be000a01be002b0007008406780028
:101600004f03be004f02be008d4f76007fb09700a3
:1016100013003300f0ff2f008b8f6b0006003b00a0
:101620000d0666000c00a7000a00370007f0a600b0
:10163000100020000a003700880f5200898f5a00de
:101640008a0f5b008b8f5b000300390010002000c5
:1016500001003e000000200007f0a7000000ea00a3
:101660004f06be004f05be004f04be00000006003e
:10167000e48240001078a3000700320064024000ba
:101680001178a3003400be001401be000400320033
:101690000330a700000006003500be001501be00a3
:1016a0000330a0000000060005ff2700058261004e
:1016b000070032000428e100010032002400050088
:1016c0000600070001003a00440005000408050078
:1016d00002000700f9ff3a00140005006f82610064
:1016e0008102700085027100850272000000060010
:1016f000800078005002be005003be004439de0076
:10170000f700b200f37f20000301610009003200fe
:101710000218e10016003a0085017200830173008f
:10172000838173000008200015003a00400020006b
:1017300013003700850172008301730083817300f9
:1017400005003a0004a8be0006a8be001000200054
:101750000b0037000201e9000402420085824a00c2
:1017600006034b0087834b000748a300f9ff3200b4
:101770000740a00004a8be0006a8be00200020006c
:10178000800098009200980000000600889fbe002c
:101790000082700004027100048271002400320093
:1017a00036432000c50020008383cf000a003900a3
:1017b0000541b1008283cf00070039000541b10027
:1017c0008183cf00040039000541b1008083cf0040
:1017d000010039000541b10085c353006022b80003
:1017e000120032000a003b00848272006102600035
:1017f0008301d1000281d3008180d3000080d30017
:101800000603e8008743e800f7ff3a0007003700c7
:1018100000004000818048000201490083814900a6
:101820000603e9008743e900f9ff3a0021fe0700bb
:101830004f04be00000006000800fa00889fbe00aa
:101840008a9fbe000084fb00d1c6b300814f5000c8
:10185000340036004b062000110009000b84d8002c
:1018600081057800720040004300dd00e98b200014
:10187000008044006022b8000600200007fe23001c
:101880005001be004000be00bffe07000002be00c7
:101890000203be0084bf9f0095bf9f00a6bf9f00ac
:1018a000b7bf9f00aa002000110009008a85d80058
:1018b00080057800e9854500c35ddd008b85440027
:1018c0003b02be002b03be000fb897009fb89700e5
:1018d0002fb99700bfb99700abfe07000002be000a
:1018e0000203be0084bf9f0095bf9f00a6bf9f005c
:1018f000b7bf9f00110009000a84d80001047800d6
:101900004344dd00888444003902be002903be0040
:101910000fb897009fb897002fb99700bfb99700ed
:101920001d003700ea4f500013003600aa002000c7
:10193000110009000a84d8000105780069044000fc
:101940004344dd00e98b2000088444006022b80095
:101950000600200007fe23003800be002801be005c
:1019600089fe07004355dd008a8444003902be0029
:101970002903be00080037004344dd00e08b20004f
:10198000080440006022b8000600200007fe230083
:101990003800be002801be007bfe07004f05be00d8
:1019a0004f04be000080fa00000006000800fa00a4
:1019b000889fbe008a9fbe00d1c6b3000004e0002d
:1019c00023003d000040ea000004fb00814f50006e
:1019d0000a00340042062000110009000204d80069
:1019e000a9002000110009008900d800e90040008a
:1019f000c308dd00ea8b200021003700ea4f5000c9
:101a000010003400a2002000110009000204d800d8
:101a100001017800690040004300dd00e18b2000f7
:101a2000008040004311dd00828040003102be0092
:101a30002103be005001be004000be0052fe070060
:101a4000380037004344dd00e08b200032003700cf
:101a50000004fb00814f50002300340042062000a8
:101a6000110009000204d800a9002000110009009b
:101a70008900d800e9004000c308dd00ea802000aa
:101a8000810045003102be002103be008b09200009
:101a90008a8545003b00be002b01be003afe0700d0
:101aa0000002be000203be0084bf9f0095bf9f00de
:101ab000a6bf9f00b7bf9f00110009000904d8000e
:101ac000010478004344dd00080545003a02be00e9
:101ad0002a03be000fb897009fb897002fb9970050
:101ae000bfb99700d5ff3700ea4f50000800340017
:101af000a2002000110009000204d80001017800b2
:101b0000690040004300dd00e1802000c4ff370091
:101b10004344dd00e0802000080440003800be009f
:101b20002801be004f05be004f04be000080fa0031
:101b300000000600d0019000028151004240a9003f
:101b40000300340010017800014978000208e80021
:101b500001007800000006006f02b000889fbe0000
:101b60008a9fbe008c9fbe008e1f78000006780002
:101b7000b1af9f0082b79f006000b8006011b8004d
:101b8000c0af9f00d1af9f00e2af9f00f3af9f00b7
:101b90008006eb006f043700bfa897008100e800c3
:101ba000b1af9f0051c2b300814f500003003a0013
:101bb000bfa997000000eb0011003700bc009000a7
:101bc0000000fb000168a300070032000d0178004f
:101bd000800078000c007800d6ff07000000e000cd
:101be00005003a005b0437008c007800c8fb070052
:101bf000e10f4000570432008d06e800550437001d
:101c000003017800b3407800d4c2b30084cf500001
:101c10000c00320007003c006d42520084cf50009f
:101c20000a0032006b42420084cf50000d003a009f
:101c30000800370004c3b30084cf500009003a0005
:101c4000060037000030a000edff37000000a000c4
:101c5000ebff37000010a000e9ff37000020a000d4
:101c6000e7ff37000018a300010032000000a100c8
:101c70000038a300010032000020a1008101fb0018
:101c80000303b100e98f51000c003e00820178008f
:101c90008005eb006a5ab900b305fb000b03b100e5
:101ca00084854500030178009300fb000103b10027
:101cb000e98f5000f7ff3600080037008005eb0081
:101cc000a3c2b30083cf500004003a008fb1970045
:101cd000c305780083b79f000201e800e1c2b300aa
:101ce00092cf100017003a0000e0a000e4c05000be
:101cf000d2cf100004003200820078000002eb0016
:101d0000e4b79f00080037008fb2970045037800c2
:101d100085b79f00e6b79f000201e8000c0037007e
:101d20006a22b9000482410001017800b101fb0080
:101d30000303b100e98f5100f9ff3600e4b79f00bb
:101d40000300370000c0a0008003eb00e7b79f004e
:101d5000b2407800b2af9f00c3c6b30083cf50003b
:101d60001400320009003c0032c6b30082cf50009c
:101d7000790032006341410082cf50000f003200f1
:101d80000104e000f80332008c00370052c7b300b2
:101d900082cf50008e0032006341410082cf50005c
:101da000090032006541510082cf500083003a00a3
:101db000080037000040a000e5ff3700e1cf9f009a
:101dc00000a0a00084003700e1cf9f000070a000b9
:101dd00081003700e1cf9f000fb29700c400780068
:101de00084b79f00010478000100e00001003a0080
:101df000289d2000080178008000eb0001003700da
:101e00008100e800e2c178000304e000fcff3a0032
:101e100081047800efb297000500e0000300320073
:101e2000898f520001003100850478000005eb0025
:101e3000898f55000100360009855500e8056000ce
:101e40002a003a00110037003c0090000068a3000f
:101e5000070032000d017800010220000c0078001c
:101e600034ff07000000e00006003a0006003700db
:101e70008c0078000002200025fb0700e10f4000e5
:101e8000010032008d06e8000a05e9000a00e000c2
:101e9000edff3a000085eb00140037003c00900095
:101ea0000068a3000900320008007800b000fb00c1
:101eb000000478000d0178000c0078001dff070079
:101ec0000000e00008003a000800370088007800b1
:101ed0003100fb00010478008c0078000cfb070047
:101ee000e10f4000010032008d06e8000900780093
:101ef0008004e9000000e000e8ff3a000b00e00089
:101f000094033200110037003c0090000068a300e9
:101f1000070032000d017800010220000c0078005b
:101f200004ff07000000e00006003a00060037004a
:101f30008c00780000022000f5fa0700e10f400055
:101f4000010032008d06e8000a05e9000a00e00001
:101f5000edff3a007f0337000fb397004602780089
:101f600086b79f00cfa2de00c82bdd004821de002f
:101f700002817300c829de00e2cf9f000048a30061
:101f8000080032000204e00006003200e14f410088
:101f900004003200f2cf9f0084d79f002900200068
:101fa00002003700f4cf9f0019002000e1fc2f0051
:101fb0008f8040000104e80096ff3700e1cf9f00ca
:101fc000e8fc2f000f0444001900200091ff3700a7
:101fd000e1cf9f00000cb300d0b79f00007020003d
:101fe0005fb1970000006100f0016100a3af9f00a6
:101ff0000000e0002502320002c8a3000200320007
:1020000064002000e4b79f00afaa97000500e0003d
:102010000a0032000fb29700680252003400be007e
:102020002401be0084b79f0090b79f00a1b79f0016
:10203000b2b79f00c3b79f000a0037008fb2970066
:102040004500be0085b79f005ffc07000002be0090
:102050000203be0094b79f00a5b79f00b6b79f00cc
:10206000c7b79f006022b8006033b8001fb0970068
:10207000afb097003fb19700cfb19700a4fb070026
:102080000000e0000c003d001fb09700afb09700cb
:102090003fb19700cfb1970003f0a20090b79f0027
:1020a000a1b79f00b2b79f00c3b79f00dfb09700f2
:1020b0003100b300d1b79f000000eb0090af9f004c
:1020c0006022b8006033b8001fb09700afb097002f
:1020d0003fb19700cfb19700f1fb07000000e0008f
:1020e0003400320024fd2f000f0242001fb0970081
:1020f000afb097003fb19700cfb1970084fc0700c5
:102100001fa897000000e9006302b900a2002000a8
:10211000110009000202d80090af9f000000e0000b
:1021200002003d000000e90090af9f001fac970047
:102130000840ea001dfe07001fb29700afb29700eb
:102140003fb39700cfb397008ffc07000002be009b
:102150000203be00c4af9f00d5af9f00e6af9f0053
:10216000f7af9f006022b8000600200007ff2300a1
:1021700067fb07000000e00002003d000804e900e2
:102180000b0037006022b800060020004702240040
:102190004fa89700dfa897006fa99700ffa99700a5
:1021a00060fb07000000e000020035000804e800c2
:1021b00098af9f00efb29700ec8f52000f003c00e9
:1021c000054078009cfd07000002be000203be002f
:1021d0001fb09700afb097003fb19700cfb1970005
:1021e000cdfa07000002be000203be0094b79f00b4
:1021f000a5b79f00b6b79f00c7b79f001fac970059
:10220000e90f540015003c006022b8006033b800ac
:102210001fb09700afb097003fb19700cfb19700c4
:102220009ffb07000000e000310032001fb0970064
:10223000afb097003fb19700cfb1970001fc070006
:10224000e00f5000e08f5800e00f5900e08f590078
:1022500027003a00e10f540025003400040020005c
:1022600005002e00b6e02200170124004fa89700b9
:10227000dfa897006fa99700ffa9970024fb07002c
:102280000000e00002003d00690454000100370036
:102290006804540098af9f002fd09700c3fd07003b
:1022a0000002be000203be00c4af9f00d5af9f0076
:1022b000e6af9f00f7af9f001fb09700afb0970049
:1022c0003fb19700cfb197001bfb0700ddfb070074
:1022d0000004be006000b8006011b80090b79f0015
:1022e000a1b79f00b2b79f00c3b79f001600370089
:1022f0001fb09700afb097003fb19700cfb19700e4
:10230000d0fb07000004be00fffb07000002be0078
:102310000203be001fb09700afb097003fb1970017
:10232000cfb197008efc07000002be000203be0082
:1023300094b79f00a5b79f00b6b79f00c7b79f008f
:102340000000eb0090af9f00a19e200010c0b300e2
:1023500005003700e4804000b10f5400a18f5c00fd
:10236000030039000040e800ea4f5000f9ff3a004e
:10237000e0cf9f009fa8970081805500efb29700a3
:10238000858050000000fb00008550000500e00043
:10239000010032000a05e9005fb3970063006300a3
:1023a000010032000a05e900dfb397000728a30007
:1023b00039003200618163000718a3000f0032006a
:1023c0003c0090000068a30006003200b10220002b
:1023d0000200e000010032008180e8000d01780079
:1023e0000d003700b00220000200e00001003200c2
:1023f0000080e8008c0078000e0037000200e0004a
:10240000220032003c0090000068a3000700320068
:102410000d017800010220000c007800c5fd0700c6
:102420000000e00006003a00180037008c00780039
:1024300000022000b6f90700e10f4000130032004f
:102440008d06e800110037003c0090000068a300f2
:10245000070032000d017800010320000c00780015
:10246000b4fd07000000e00006003a000600370057
:102470008c00780000032000a5f90700e10f400060
:10248000010032008d06e8000a05e9000a00e000bc
:10249000edff3c00590037005fb097000038a30003
:1024a00014003a00110037003c0090000068a300bf
:1024b000070032000d017800010220000c007800b6
:1024c0009cfd07000000e00006003a00060037000f
:1024d0008c007800000220008df90700e10f400019
:1024e000010032008d06e8000a05e9000a00e0005c
:1024f000edff3c00dfb09700618160000118a30090
:102500000e0032003c0090000068a300050032007d
:10251000b10220000200e000220032008180e800c9
:1025200020003700b00220000200e000010032006d
:102530000080e8008c0078002c0037000200e000ea
:102540002e0032003c0090000068a300030032001f
:102550000d01780001022000130037008c00780084
:1025600000022000210037003c019000a19e2000c5
:102570000000fb000268a300100032004200dd00f2
:10258000008040001001be000800be00f6fb0700fe
:10259000a20020000300200003fc0700010320002c
:1025a000808040000d0178000c00780061fd07007c
:1025b0000000e00010003a00100037004200dd008b
:1025c000008040001001be000800be00e6fb0700ce
:1025d000a200200003002000f3fb070002032000fc
:1025e000000141008c0078000200780048f90700e3
:1025f000e10f4000010032008d06e800efc89700af
:102600000140e900e0cf9f000104e000d6ff3a005e
:10261000130037003c0090000068a3000700320060
:102620000d017800010320000c00780041fd070037
:102630000000e00006003a00060037008c00780039
:102640000003200032f90700e10f400001003200d2
:102650008d06e8001fa897000000e90090af9f00da
:102660001fa897000000e000eaff3c006fb1970050
:10267000e80f51000300340080c0b300e0cf9f009a
:1026800002003700cfe99700e3cf9f006fc89700a3
:102690008005fb006fb297008b0552000004e0003c
:1026a000100032003c0090000068a30007003200d8
:1026b0000d017800e10220000c0078001dfd0700ec
:1026c0000000e00006003a00060037008c007800a9
:1026d000e00220000ef90700e10f40000100320087
:1026e0008d06e8006fc89700b0fc07000002be002e
:1026f0000203be001fb09700afb097003fb1970034
:10270000cfb1970020fb0700cefa07002d0037005d
:102710003c019000a19e20000000fb000268a30085
:10272000100032004200dd00808040001101be0038
:102730000800be008cfb0700a20020000300200060
:1027400099fb070001032000808040000d01780004
:102750000c007800f7fc07000000e00010003a00d1
:10276000100037004200dd00808040001101be00f3
:102770000800be007cfb0700a20020000300200030
:1027800089fb070002032000000141008c00780053
:1027900002007800def80700e10f4000010032007f
:1027a0008d06e800efca97000500fb004200dd003f
:1027b000a19e2000008040001001be000800be0065
:1027c00079fb07000004be00efc897000140e90054
:1027d000e0cf9f000104e000cdff3a001100370078
:1027e0003c0090000068a300070032000d01780053
:1027f000010320000c007800cefc07000000e00080
:1028000006003a00060037008c0078000003200024
:10281000bff80700e10f4000010032008d06e8001c
:102820008b05e9000b00e000edff3a005fb3970075
:102830000638a300470132000a00e00045013400d9
:102840003c0090000068a300070032000d017800f2
:10285000010220000c007800b6fc07000000e00038
:1028600006003a00060037008c00780000022000c5
:10287000a7f80700e10f4000010032008d06e800d4
:102880000a05e900eeff3a0032013700afab9700ce
:102890000700e000040032000fb097004004be00c3
:1028a00080b79f00040037008fb097004104780084
:1028b00081b79f008004eb006fb197000200e00039
:1028c00006003a000880740000f0a7000000ea004b
:1028d0000000e9004f00de00e0b79f00dfb1970085
:1028e000030cb20093b79f0000082000808f5100b6
:1028f0000d003200000c2000808f510018003a00bb
:10290000a19e200010c0b300e4804000b10f54002d
:10291000a18f5c00110039000040e800ea4f500030
:10292000f9ff3a000d00370010c0b300020120008b
:1029300003002000820f5400838f5c0007003900e1
:10294000441add00cc11de00830172004411dd0069
:102950000040e800e84f5000f6ff3a00e0cf9f004b
:10296000efca97000500fb006fb39700860f500079
:1029700002003d00e6cf9f0004003700efb3970050
:10298000808f530001003d00e0b79f000b00e00086
:1029900004003200dfb09700638060000100320065
:1029a0008b05e9005fb1970002e8a3000600320042
:1029b000efb19700838f55000200340083855500e6
:1029c000010037008005eb006fca97000400fb0090
:1029d0000007eb00808f5500010034000087550090
:1029e000dfb297000528a300380032006181620041
:1029f0000518a3000f0032003c0090000068a300ff
:102a000006003200b10220000200e00001003200a6
:102a10008180e8000d0178000d003700b002200031
:102a20000200e000010032000080e8008c00780025
:102a30000e0037000200e000100032003c00900061
:102a40000068a300070032000d0178000102200099
:102a50000c00780037fc07000000e00006003a0098
:102a6000060037008c0078000002200028f80700dc
:102a7000e10f4000010032008d06e8000e00e0008a
:102a80004e0032003c0090000068a30007003200b6
:102a90000d017800010320000c00780025fc0700e0
:102aa0000000e00006003a00060037008c007800c5
:102ab0000003200016f80700e10f4000010032007b
:102ac0008d06e8000e07e900ecff37000e00e0007d
:102ad000150032005fb397000638a30012003a00d9
:102ae0003c0090000068a300070032000d01780050
:102af000010220000c0078000efc07000000e0003e
:102b000006003a00060037008c0078000002200022
:102b1000fff70700e10f4000010032008d06e800da
:102b20000e07e900eeff3a00dfb397006181630012
:102b30000718a3000f0032003c0090000068a300bb
:102b400006003200b10220000200e0000100320065
:102b50008180e8000d0178000d003700b0022000f0
:102b60000200e000010032000080e8008c007800e4
:102b70000e0037000200e000100032003c00900020
:102b80000068a300070032000d0178000102200058
:102b90000c007800e7fb07000000e00006003a00a8
:102ba000060037008c00780000022000d8f70700ec
:102bb000e10f4000010032008d06e8006fb0970081
:102bc0000002e9004222dd00a09e20000002420037
:102bd000efb5970004057800450037008b05e90044
:102be000000820009fb09700808f50002100320025
:102bf000000c2000808f50002b003a002fa9970076
:102c00000200e000100032001a02be000401be0003
:102c10000800be00f4b79f0085bf9f0052fa07006e
:102c2000e0cf9f000000fb00cf80de007fb2970066
:102c30008fba97000401be005efa0700000454003a
:102c400081845c00070037001a0178001100090038
:102c50000284d800a2002000110009000280d800e0
:102c6000e1cf9f00efc997000343b000e3cf9f007f
:102c70000d003700a09e2000000055000802be0095
:102c8000000378000603e900030033008502d10049
:102c90000482d300fbff37006f006200919d20008b
:102ca00061407800e0cf9f00bc009000efcb970020
:102cb0000700fb000168a300070032000d01780047
:102cc000800078000c0078009afb07000000e0000c
:102cd00005003a00050037008c0078008cf70700eb
:102ce000e10f4000010032008d06e8006405550048
:102cf0000b00e000b9ff3a005fb097000038a30076
:102d0000140032000e00e000120034003c0090007d
:102d10000068a300070032000d01780001022000c6
:102d20000c00780083fb07000000e00006003a007a
:102d3000060037008c0078000002200074f70700be
:102d4000e10f4000010032008d06e8000e07e900a7
:102d5000eeff3a00bfa8970011407800e0cf9f0037
:102d60000004e0008cfb3a000d0078004f0778006b
:102d70004f06be004f05be004f04be006f02b100fb
:042d80000000060049
:020000040000fa
:102d8400640000000000000054650000737400003b
:102d9400005300006c65000065700000696e00005f
:102da400672e00002e2e0000004f00007269000004
:102db400656e000074610000746900006f6e0000ad
:102dc4003a00000055700000005800003d25000046
:102dd4002e32000066200000205900003d2500002e
:102de4002e320000660a00005a3d0000252e000025
:102df400326600000000000000030000030600002b
:102e040001040000060200000500000003050000a4
:082e1400640000000000000052
:020000040000fa
:102e1c001200fa00000f9800e3004700e26f29004f
:102e2c000b000900b258780000c3b3000000fb008f
:102e3c004400dd008040780070c3b3006f40600038
:102e4c0000c07000804078000e089000714098001f
:102e5c0000c3b3000000fb004400dd00804078009c
:102e6c0040c3b3006f40600000c070008040780029
:102e7c000e0890006140980010c3b3000000fb00e6
:102e8c004400dd008040780040c3b3006f40600018
:102e9c0000c07000804078000e08900051409800ef
:102eac0020c3b3000000fb004400dd00804078002c
:102ebc0040c3b3006f40600000c0700080407800d9
:102ecc000e0890003140980020c3b3000000fb00b6
:102edc004400dd008040780000c3b3006f40600008
:102eec0000c07000804078000e08900011409800df
:102efc00e0c4b3000000fb00a1042000810f5000cf
:102f0c001e003200a1042000810f50000a003c007a
:102f1c0041042000810f5000610032006104200048
:102f2c00810f50003200320011042000810f50003c
:102f3c00420032005d003700e1042000810f500098
:102f4c0054003200e1042000810f500004003c00ca
:102f5c00d1042000810f50002800320053003700ac
:102f6c00f1042000810f5000470032003105200091
:102f7c00810f5000410032004c003700f0c6b30006
:102f8c000000fb0011062000810f500004003200ed
:102f9c0051072000810f500004003200430037001d
:102fac0010c0b300104798001000370060c7b30082
:102fbc000000fb00c1062000810f5000070032000a
:102fcc00e1062000810f500001003200060037009e
:102fdc0060c0b300104798000300370070c0b30006
:102fec001047980000000000000000002f00370080
:102ffc0020c0b300104798002c00370060c7b30006
:10300c000000fb0021072000810f5000040032005b
:10301c0091072000810f500004003200230037007c
:10302c0030c0b300104798000300370050c0b30005
:10303c0010479800000000001c003700f0c6b300d9
:10304c000000fb0001072000810f5000040032003b
:10305c0051072000810f500004003200130037008c
:10306c0040c0b300104798000300370080c0b30085
:10307c0010479800000000000c00370090c0b3000f
:10308c00104798000900370000c1b30010479800a2
:10309c000600370010c1b30010479800030037003a
:1030ac0020c1b30010479800000000000e089000eb
:1030bc009e4090002140980060c0b300004f780003
:1030cc000e089000104090000080fb004400de00d1
:1030dc00004078006a00b900000078008040780059
:1030ec000e089000104090006f40600000c040003f
:1030fc00204798002e4090000080fb004200de002c
:10310c00804078002e40900000c040001e4f4000d0
:10311c002e409000634060000004e00004003a0080
:10312c001e409000e24f500001003e001e4fe9008f
:10313c001e4090000080fb000000e90000004700ea
:10314c00304090001e4f40000e0890003040900020
:10315c000080fb004400de00004078006a00b900eb
:10316c0000007800804078000e08900030409000fd
:10317c006f40600000c040001e4f40009e80fb006e
:10318c007000200000017800110009008280d80036
:10319c008000fd00004f78000e0890009e407800e3
:1031ac00414098000e089000104078000004a200e6
:1031bc000004e000230032000e0890001040900044
:1031cc00f90007008e089000904098000e089000bf
:1031dc0020409000f40007008e089000a04098005a
:1031ec000e08900030409000ef0007008e08900011
:1031fc00b04098000e08900040409000ea00070094
:10320c008e089000c04098000e089000504090002e
:10321c00e50007008e089000d04098000e08900042
:10322c0060409000e00007008e089000e04098009d
:10323c000e08900070409000db0007008e08900094
:10324c00f04098000080fa00000006000200fa002e
:10325c00881f7800000f78002200200060042000f6
:10326c007105200003102000804978008149780006
:10327c0082497800cc21ef00871f7800881f7800e6
:10328c000500fc0057052000373b8800a80a2000e9
:10329c00383b8800cd61a9004f047800cf0378003b
:1032ac001e007800104078000004e000220032007c
:1032bc001e007800104090000080fb004800dd00ec
:1032cc00800078001e007800204090000080fb00f9
:1032dc0001007000100f88001e0078003040900034
:1032ec000080fb00c800dd001e007800404090000c
:1032fc000080fb0001007000000f88001e007800a9
:10330c00504090000080fb00c800dd001e007800db
:10331c00604090000080fb0001007000f00e8800ff
:10332c001e007800704090000080fb004800dd001b
:10333c00e00e8800270037001e0078001040900037
:10334c00840007000080fb004804dd001e007800ac
:10335c00204090007f0007000080fb0008007000f8
:10336c00100f88001e007800304090007900070094
:10337c000080fb004804dd001e00780040409000f7
:10338c00740007000080fb0008007000000f88002c
:10339c001e007800504090006e0007000080fb007b
:1033ac004804dd001e0078006040900069000700b2
:1033bc000080fb0008007000f00e88001e007800f2
:1033cc0070409000630007000080fb004800dd00a7
:1033dc00e00e880010002800600e88004f04780072
:1033ec000080fa00000006000400fa0010079800a4
:1033fc00d861a80000000000c00e800068006000ca
:10340c000000e000fcff3200910f8000010f7800fb
:10341c001e007800804078001e009000214098002b
:10342c001e0078004800de00804078001e009000ee
:10343c0011409800810f8000010f78001e00780069
:10344c00804078001e009000414098001e007800db
:10345c004800de00804078001e009000314098004b
:10346c00710f8000010f78001e00780080407800fa
:10347c001e009000614098001e0078004800de009d
:10348c00804078001e00900051409800610f800031
:10349c00010f78001e0078004800de0080407800a4
:1034ac001e009000714098001e00900010407800a3
:1034bc000004a2000004e000230032001e00900073
:1034cc0010409000380007009e009000904098003b
:1034dc001e00900020409000330007009e009000da
:1034ec00a04098001e009000304090002e00070075
:1034fc009e009000b04098001e009000404090004c
:10350c00290007009e009000c04098001e0090000b
:10351c0050409000240007009e009000d04098007e
:10352c001e009000604090001f0007009e0090005d
:10353c00e04098001e009000704090001a000700b8
:10354c009e009000f0409800d861a9000080fa001d
:10355c00000006000200fa00004f78009e80fb007d
:10356c00d0cc2c000008b8004308de0000407800e6
:10357c000080fb004400dd00804178001e81fb00d0
:10358c00d0cc2c000010b8004308de006a00b90053
:10359c0000007800000051000040780000c071006d
:1035ac000080fa00000006000200fa00004f7800cc
:1035bc001e80fb004400de00004078006a00b90069
:1035cc0000007800804078001e4178006f40610058
:1035dc0000c040000080fa00000006000200fa0063
:1035ec00000f78001e00780018ff07000080fa001a
:1035fc00000006000200fa00000f78001e007800a0
:10360c0079ff07000080fa00000006000800fa00ad
:10361c00889fbe008a9fbe008c9fbe00410980001f
:10362c00f07f2e0000806000400988004109800076
:10363c000030200001007000400988004109800022
:10364c00f0f32f00008060004009880028a1a90039
:10365c002881a9002841a900002020009009880099
:10366c0031e1a90031c1a8003181a8003141a80085
:10367c003121a80031a1a8003101a90081098000e5
:10368c00f0f92f000080600080098800a1098000fb
:10369c00f0ff230000806000a0098800a1098000d1
:1036ac00000c200001007000a0098800a109800016
:1036bc00c003200001007000a0098800a009800050
:1036cc003000b300a00988002a61ef001000200030
:1036dc00700988002de1a8002dc1a8002d81a8003b
:1036ec002da1a9006109800000602000010070007c
:1036fc00600988002d01a80029e1a800008823009a
:10370c00110020008c01070000882300110020000c
:10371c00890107003203200001002800010f780006
:10372c004100200011079800a00180009e0190002c
:10373c009e007800a301880082087800a001880010
:10374c0050032000010020007b0107002203200011
:10375c000100280021079800410020003107980043
:10376c00a0018000be019000ae009000a301880073
:10377c0082087800a001880050032000010020007e
:10378c006d010700820320000c0028004d00200072
:10379c00a00180008d0178008c007800a3018800c6
:1037ac0082087800a001880050032000010020004e
:1037bc0061010700c20020000a0028004b00200015
:1037cc00a00180008b0178008a007800a30188009a
:1037dc0082087800a001880050032000010020001e
:1037ec005501070062002000080028004900200055
:1037fc00a00180008901780088007800a30188006e
:10380c0082087800a00188005003200001002000ed
:10381c00490107007800070010c0b3004f06be0036
:10382c004f05be004f04be000080fa0000000600e9
:10383c000400fa00000f7800110798000a00370006
:10384c001e007800104078000000fb000000e00033
:10385c00110032001e007800104078001e0fe800a6
:10386c0010000700000000001e00900000f0a700f0
:10387c000000ea000000ea004f00de000040780083
:10388c009e0090008100e900110798000004e00000
:10389c00ebff3a0001003700000000000080fa0046
:1038ac00000006000200fa00889fbe00004f78005e
:1038bc001e00fb00ea0f50000b003200ea0f500014
:1038cc0003003c00e80f50000e00320014003700db
:1038dc00ec0f500010003200ed0f500010003a00b9
:1038ec00640007004100370006c8bf000004e00078
:1038fc0002003a00050107003c003700f800070001
:10390c003a0037007c00070000c2b300e5ff070057
:10391c007900070035003700370007003300370007
:10392c0007c8bf00f04f500020003a000768ef00b6
:10393c0006c8bf000004e0000f003a00020c200093
:10394c000400280045002000a001800085017800bb
:10395c0084007800a301880082087800a001880008
:10396c005003200001002000f300070010c0b3003a
:10397c0006e8b7000d0037000408200002002800fc
:10398c0043002000a00180008302780082007800b0
:10399c00a501880084087800a0018800500320004d
:1039ac0001002000e40007000668ef001e01fb0088
:1039bc002800280049002000a0018000890178001f
:1039cc0088007800a301880082087800a001880094
:1039dc005003200001002000d700070007c8bf00db
:1039ec000040e80007e8b700000000004f04be00ec
:1039fc000080fa00000006000000fa00889fbe005c
:103a0c00130020000000280041002000a2018000cb
:103a1c000102780000007800a401880003087800f7
:103a2c00a2018800a088200001002000c20007002d
:103a3c00220020000800280049002000a00180007e
:103a4c008901780088007800a3018800820878003a
:103a5c00a0018800a088200001002000b60007000b
:103a6c000668ef000768ef004f04be000080fa0004
:103a7c00000006000000fa00648020001442780068
:103a8c000404e0000d003a000408200002002800a5
:103a9c0043002000a001800083027800820078009f
:103aac00a501880084087800a0018800500320003c
:103abc0001002000a00007000c003700030c2000c0
:103acc000000280041002000a201800001027800c3
:103adc0000007800a401880003087800a201880087
:103aec005003200001002000930007000768ef003e
:103afc000080fa00000006000200fa007680200028
:103b0c00164378000604e00028003a0006c8bf00ff
:103b1c000004e0000f003a00020c20000400280012
:103b2c0045002000a0018000850178008400780009
:103b3c00a301880082087800a001880050032000af
:103b4c00010020007c00070010c0b30006e8b7009d
:103b5c000d0037000408200002002800430020005c
:103b6c00a00180008302780082007800a501880003
:103b7c0084087800a0018800500320000100200078
:103b8c006d0007000668ef000040eb00004f780066
:103b9c0002003700190007001e4fe8001e40780095
:103bac00ee4f5000fbff36001200370072802000f1
:103bbc00124178000241e9008241780071802000b6
:103bcc0083487800030120000000280041002000f9
:103bdc00a20180000102780000007800a401880096
:103bec0003087800a2018800500320000100200087
:103bfc00510007000080fa00000006000000fa00e7
:103c0c00889fbe008a9fbe00430120000000280050
:103c1c0041002000a2018000010278000000780021
:103c2c00a401880003087800a2018800500320003a
:103c3c00010020004000070007c8bf000040e8005a
:103c4c0007e8b70007c8bf00f04f500020003a004b
:103c5c000768ef0006c8bf000004e0000f003a0040
:103c6c00020c20000a0028004b002000a00180005c
:103c7c008b0178008a007800a30188008208780004
:103c8c00a001880050032000010020002a0007003a
:103c9c0010c0b30006e8b7000d0037000208200082
:103cac000800280049002000a0018000890178004c
:103cbc0088007800a301880082087800a0018800a1
:103ccc0050032000010020001b0007000668ef00d5
:103cdc004f05be004f04be000080fa000000060035
:103cec000200fa000040eb00004f780002003700a1
:103cfc0081ff07001e4fe8001e407800ef4f500078
:103d0c00fbff36000080fa00000006000200fa00fb
:103d1c000040eb00004f780002003700b7ff0700af
:103d2c001e4fe8001e407800ef4f5000fbff36009e
:103d3c000080fa00000006000400fa00008fbe00ac
:103d4c0005003700000000000081eb008081eb00d3
:103d5c001e0f41005e9749001e00be00e00f500090
:103d6c00e08f5800f7ff3a000080fa0000000600d0
:103d7c000200fa00004f78001e4078000004e000ba
:103d8c000d003200f2002000040028004500200045
:103d9c00a00180008501780084007800a3018800d0
:103dac0082087800a0018800500320000100200048
:103dbc00e1ff07000c003700c400200002002800bf
:103dcc0043002000a001800083027800820078006c
:103ddc00a501880084087800a00188005003200009
:103dec0001002000d4ff07000080fa00000006004c
:103dfc000200fa00000f78001e007800e40f50005b
:103e0c0018003200e40f500007003e00e20f500093
:103e1c0010003200e20f500010003e00e10f500085
:103e2c000a00320019003700e60f50001100320072
:103e3c00e60f50000d003900e70f50000f00320064
:103e4c00e80f50000f003200100037006606a80083
:103e5c000e0037006626a8000c0037006646a80046
:103e6c000a0037006666a800080037006686a800be
:103e7c000600370066a6a8000400370066c6a80036
:103e8c000200370066e6a800000000000080fa007f
:103e9c00000006000200fa00000f78001e007800f7
:103eac00e40f500018003200e40f500007003e00f1
:103ebc00e20f500010003200e20f500010003e00e4
:103ecc00e10f50000a00320019003700e60f5000d5
:103edc0011003200e60f50000d003900e70f5000c2
:103eec000f003200e80f50000f00320010003700b6
:103efc006606a9000e0037006626a9000c003700e4
:103f0c006646a9000a0037006666a900080037005b
:103f1c006686a9000600370066a6a90004003700d3
:103f2c0066c6a9000200370066e6a9000000000082
:103f3c000080fa00000006000200fa00000f780072
:103f4c001e007800e40f500038003200e40f5000df
:103f5c0007003e00e20f50001a003200e20f500042
:103f6c0025003e00e10f50000a00320070003700bf
:103f7c00e60f500047003200e60f500038003900c1
:103f8c00e70f500050003200e80f50005b00320089
:103f9c0067003700303380000040780061406000db
:103fac000004a200614060000080fb006100600022
:103fbc00313380000100a100010070003033880013
:103fcc005b003700303380000000d100614060009e
:103fdc000004a200614060000080fb0061006000f2
:103fec0000004000313380000110a100010070007e
:103ffc00303388004e003700303380004200de0042
:10400c00614060000004a200614060000080fb0081
:10401c00610060004200dd00313380000120a1000e
:10402c0001007000303388004100370030338000cd
:10403c004300de00614060000004a20061406000ab
:10404c000080fb00610060004300dd003133800024
:10405c000130a100010070003033880034003700bb
:10406c00303380004400de00614060000004a20098
:10407c00614060000080fb00610060004400dd00d6
:10408c00313380000140a100010070003033880002
:10409c0027003700303380004500de0061406000af
:1040ac000004a200614060000080fb006100600021
:1040bc004500dd00313380000150a100010070008b
:1040cc00303388001a003700303380004600de00a1
:1040dc00614060000004a200614060000080fb00b1
:1040ec00610060004600dd00313380000160a100fa
:1040fc0001007000303388000d0037003033800031
:10410c004700de00614060000004a20061406000d6
:10411c000080fb00610060004700dd00313380004f
:10412c000170a10001007000303388000000000015
:10413c000080fa00000006000200fa00000f780070
:10414c001e007800e40f50002a003200e40f5000eb
:10415c0007003e00e20f500016003200e20f500044
:10416c001c003e00e10f50000a0032004c003700ea
:10417c00e60f50002f003200e60f500025003900ea
:10418c00e70f500034003200e80f50003b003200c3
:10419c0043003700303380006100600000f0a7005e
:1041ac000000ea000000ea004f00de00004078004a
:1041bc003c003700303380006200600000f0a70044
:1041cc000000ea000000ea004f00de00004078002a
:1041dc0034003700303380006400600000f0a7002a
:1041ec000000ea000000ea004f00de00004078000a
:1041fc002c003700303380006800600000f0a7000e
:10420c000000ea000000ea004f00de0000407800e9
:10421c0024003700303380007000600000f0a700ed
:10422c000000ea000000ea004f00de0000407800c9
:10423c001c00370031338000000220000080600039
:10424c0000f0a7000000ea000000ea004f00de00ca
:10425c000040780013003700313380000004200048
:10426c000080600000f0a7000000ea000000ea00f7
:10427c004f00de00004078000a0037003133800028
:10428c00000820000080600000f0a7000000ea0099
:10429c000000ea004f00de0000407800010037000b
:1042ac000040eb000080fa00000006000200fa005b
:1042bc00000f78001e007800e40f50001800320048
:1042cc00e40f500007003e00e20f500010003200d7
:1042dc00e20f500010003e00e10f50000a003200c7
:1042ec0019003700e60f500011003200e60f5000a5
:1042fc000d003900e70f50000f003200e80f50009e
:10430c000f003200100037006206a9000e003700c3
:10431c006226a9000c0037006246a9000a0037008b
:10432c006266a900080037006286a9000600370003
:10433c0062a6a9000400370062c6a900020037007b
:10434c0062e6a900000000000080fa0000000600f0
:10435c000000fa0067c6a80067e6a80069c6a800b6
:10436c0069e6a80063c6a90063e6a900e004200082
:10437c00c02488009b24a8009be4a8000080fa00bd
:10438c00000006000600fa00200798002e0090009e
:10439c007900b900000078008000eb00008fbe00af
:1043ac00000000001e0090001e00700000f0a7002e
:1043bc000000ea000000ea004f00de000040780038
:1043cc000081eb008081eb001e0f41005e974900dd
:1043dc000004e000f3ff3a000080fa000000060041
:1043ec000000fa009a04a8000000000050048000ad
:1043fc00620060000000e000fcff32008a20a9008f
:10440c000080fa00000006000000fa009a24a800c0
:10441c000000000050048000620060000000e0001a
:10442c00fcff32008a20a9000080fa000000060080
:10443c000000fa009a44a80000000000500480001c
:10444c00620060000000e000fcff32008a20a9003e
:10445c000080fa00000006000000fa009aa4a900ef
:10446c009a84a800000000005004800062006000e4
:10447c000000e000fcff32008a20a9000080fa0056
:10448c00000006000000fa009aa4a8009a84a80074
:10449c000000000050048000620060000000e0009a
:1044ac00fcff32008a20a9000080fa000000060000
:1044bc000200fa00004f78001e80fb00b024880038
:1044cc0000000000f1248000000024000080600047
:1044dc000000e000fbff3a008a20a9000080fa00ef
:1044ec00000006000000fa009a64a800000000001a
:1044fc0050048000620060000000e000fcff32000d
:10450c008a20a900a0248000004078000080fa00d6
:10451c00000006000000fa0000000000d02480001b
:10452c007f0060000000e000fcff3a00f0248000f7
:10453c00640060000000e000f8ff3a000080fa0020
:10454c00000006000400fa00000f78001107980024
:10455c00a3ff07001e00780000407800d4ff07007e
:10456c001e00900000407800d1ff0700b0ff07004c
:10457c000080fa00000006000600fa004047980090
:10458c0010002000000f780095ff0700e1ff0700e6
:10459c001e007800804078004e40900000c0400023
:1045ac00c3ff0700cfff070020479800b5ff0700a7
:1045bc009fff07006226ef002e4090000080fa005b
:1045cc00000006000400fa002047980031479800cc
:1045dc008dff07002e409000b5ff07003e40900075
:1045ec00b3ff07002e409000e3ff0700004f780058
:1045fc001e80fb00303388001e4078000080fa00db
:10460c00000006000400fa00004f780011479800e3
:10461c002247980072ff0700beff07001e4078007b
:10462c00a3ff07001e409000a1ff07002e40900042
:10463c009fff07007eff07000080fa0000000600c5
:020000040000fa
:10464c000608000002000000800000006e09000057
:10465c006400000080000000080800000200000058
:10466c0080000000380a00001000000080000000ec
:10467c000008000006000000800000000a0800008e
:10468c000200000082000000010100000c08000084
:10469c000200000080000000120a0000260000004a
:1046ac0082000000490a000000490a0009000000cd
:1046bc00000200004b0a0000004b0a000e02010031
:1046cc0000000000000000000000000006020200d4
:1046dc0000000000120a0000480a0000060000005a
:1046ec00800000000e080000600100008200000045
:1046fc000000000000000000f03f0000000000007f
:10470c0000002400400000000000000000594000a0
:10471c0000000000000040008f400000000000007e
:10472c000088c30040000000000000006af8400050
:10473c0000000000008084002e41000000000000fa
:10474c00d01263004100000000008400d7974100a4
:10475c00000000000065cd00cd41000000002000ed
:10476c005fa0020042408c00b5781d00af154400dc
:10477c00ea8ca00039593e002946a5005cc3f10023
:10478c0029633d00489a64007ec50e001b514a0007
:10479c0044f3c200e4e4e900634c3d00c7ddd600fd
:1047ac00ba2e77004e5ffb00f051ef00fc8a5000f0
:1047bc00c7592900090f6b009f527d00c394250037
:1047cc00ad49b200545a6200d7d71800e77469009b
:1047dc009c750000883ce400377e0000000000005f
:1047ec000000f0003f9a99009999990099b93f00ff
:1047fc007b14ae0047e17a00843ffc00a9f1d200a3
:10480c004d6250003f2d43001cebe200361a3f0076
:10481c00f168e30088b5f800e43e8d00edb5a0002a
:10482c00f7c6b0003e48af00bc9af200d77a3e0003
:10483c003a8c3000e28e7900453e9500d626e80091
:10484c000b2e11003ebbbd00d7d9df007cdb3d0039
:10485c00234292000ca19c00c73ba000c2ebfe00bf
:10486c004b48b400399c5700772726006ca13700c1
:10487c001fb8d4004a7aee008d352600a6acaa00eb
:10488c0004b67900339d35008f1de90015663100a3
:10489c0023614d0017acf800522f6f000e99840065
:1048ac00d94b40002d3005008ee42e00ff2b2b0041
:1048bc00acf74e0015927e0068165900f3f8c20052
:1048cc001f6ea50001000000d2090000400000008e
:1048dc0082000000286e75006c6c290000303100dd
:1048ec003233340035363700383961006263640086
:1048fc006566000001000000000a00000000640072
:10490c0000000000e8030000001027000000a000d9
:10491c008601000040420f000080960098000000c5
:10492c00e1f5050000ca9a003b0000000000000001
:020000040000fa
:10493c000000fa0086fe070072022000010220002f
:10494c00000320002fff07000001eb0011022000e4
:10495c00000320002bff07000080fa000000060077
:10496c000000fa000080fa00000006000600fa00c1
:10497c00881f780020479800210798002e4090004f
:10498c000080fb00810220000eff0700004f780022
:10499c00100020007bfe07002e4090000080fb00e2
:1049ac009102200007ff0700104798009e80fb0033
:1049bc001e4090000080fb004800dd0001007000ec
:1049cc00cf80de0070ef070002c02c00936724003c
:1049dc0027ef07002e0190000089be002e409000aa
:1049ec000080fb00a1022000f6fe0700004f7800bb
:1049fc001000200063fe07002e4090000080fb009a
:104a0c00b1022000effe0700104798009e80fb00cb
:104a1c001e4090000080fb004800dd00010070008b
:104a2c00cf80de0058ef070002c02c0093672400f3
:104a3c000fef07002e019000200198003101980023
:104a4c002e4090000080fb00c1022000ddfe07001c
:104a5c00004f7800100020004afe07002e40900006
:104a6c000080fb00d1022000d6fe07001047980002
:104a7c009e80fb001e4090000080fb004800dd0083
:104a8c0001007000cf80de003fef070002c02c0059
:104a9c0093672400f6ee07002e0190004001980069
:104aac00510198002e0090001000be0018c0b300f9
:104abc00a2702d0033ca23002fef07000000e00086
:104acc00010035000044eb000804e0000e00320049
:104adc002e0090001000be0018c0b300a2702d0074
:104aec0033ca2b0026ef07000000e00001003c0059
:104afc000044eb000804e000030032002e0190009b
:104b0c006000b8000089be002e009000b00090003c
:104b1c002000900018c0b300a2702d0033ca2300ef
:104b2c0015ef07000000e000010035000044eb0029
:104b3c000804e000100032002e009000b00090003d
:104b4c002000900018c0b300a2702d0033ca2b00b7
:104b5c000bef07000000e00001003c000044eb00fc
:104b6c000804e000040032002e0190006000b80040
:104b7c0020019800310198002e009000d000900088
:104b8c004000900018c0b300a2702d0033ca23005f
:104b9c00f9ee07000000e000010035000044eb00d6
:104bac000804e000100032002e009000d0009000ad
:104bbc004000900018c0b300a2702d0033ca2b0027
:104bcc00efee07000000e00001003c000044eb00a9
:104bdc000804e000040032002e0190006000b800d0
:104bec0040019800510198004f0478000080fa00b1
:104bfc00000006000000fa000140fe000080fa00f0
:104c0c00000006000000fa000040fe000080fa00e0
:104c1c00000006000000fa005fe6a8009fa6a800ae
:104c2c00a9a6a900aba6a800afa6a800b1a6a9008a
:104c3c00ada6a9008a60a90081058000f0ff2800bc
:104c4c000080600000c0a000800588009a60a80069
:104c5c000080fa00000006000200fa00af01070015
:104c6c000000eb0038010700421f20000300200069
:104c7c00606d220000010700a20a20000300200042
:104c8c00006e2200fc000700120020000300200030
:104c9c00806e2200f800070080a320008040eb000b
:104cac000148780000a420008040eb000148780007
:104cbc0080a3200056f8070080a3200063f90700aa
:104ccc00820020008000eb0000a420006cef0700a5
:104cdc00d0ff0700c000200088ef0700606c29009f
:104cec00801f78005fef07008f87e90010ff070037
:104cfc0025000700000f7800230007009e005000dd
:104d0c0080382100808f5000030036001e00070001
:104d1c00000f780004003700330007000019200052
:104d2c0098fd0700f4ff3700170007009e005000a5
:104d3c0080382100808f500008003600c000200011
:104d4c006eef0700b06c2900801f780045ef07005c
:104d5c008f87e900abff0700e5ff3700c00020009c
:104d6c0066ef0700706d29005aef0700406e2900ae
:104d7c00801f78003bef07008f87e90000192000a7
:104d8c0080fd0700e8ff37000000fa0010408000ab
:104d9c0021408000000078000080fa00000006002e
:104dac000000fa0010c0b30000e8b7000080fa0061
:104dbc00000006000000fa000a68ef000080fa000c
:104dcc00000006000000fa00104080002140800026
:104ddc0061004000e08048001040880021408800bd
:104dec000080fa00000006000c00fa00c000200051
:104dfc0042ef07008e00780000032000dbfe070066
:104e0c004e029000de0290002e019000be01900038
:104e1c001e00be00849fbe00829fbe00809fbe000d
:104e2c00706e2900801f780007ef0700ee8757008f
:104e3c000080fa00000006000400fa001007980039
:104e4c001e009000e40f500004003200e50f5000eb
:104e5c000400320000c0eb0010003700000000001e
:104e6c0001003700000000001e0090000d0007003c
:104e7c00d1cc2c000100b8004308de00004f7800b4
:104e8c0040c6b3009e40780080cf50000200360030
:104e9c0040c6b300004f78001e4078000080fa0036
:104eac00000006000400fa00100798001e00900095
:104ebc00e40f500004003200e50f500004003200f3
:104ecc000080eb001f0037000000000001003700dd
:104edc00000000009e009000613a88004627a80060
:104eec000000eb00000f780002003700000000000b
:104efc001e0fe800703e20009e007800808f50004e
:104f0c00faff36004627a9000000eb00000f7800de
:104f1c0002003700000000001e0fe800703e200069
:104f2c009e007800808f5000faff360000000000d1
:104f3c00303a8000610060000000e000fcff3200ad
:104f4c00903880000080fa00000006000200fa0091
:104f5c00000f78001e007800e40f500003003200b0
:104f6c00e50f500004003a007ea6a8007e86a8003b
:104f7c0010c0b300010037000040eb000080fa00c5
:104f8c00000006000200fa00000f78001e007800f6
:104f9c000000e0001a003a00413a8000f0ff2300c4
:104fac0000806000403a880000c0eb004ae7b70080
:104fbc00313a8000f0f02f0000806000303a880019
:104fcc00513a8000f00f2e000080600000c0a0005d
:104fdc00503a8800313a8000f0cf2f0000806000fa
:104fec00303a8800413a800030f82f000080600091
:104ffc00403a880047e7a80010c0b3000100370012
:10500c000040eb000080fa00000006000400fa00eb
:10501c00100798000040eb00004f7800110037009b
:10502c001e80fb006a00b90080007800e09620002a
:10503c0000804000900078001e009000808f50008f
:10504c0007003a001e80fb006a00b900800078005f
:10505c00e0962000008040008000eb000108780002
:10506c001e4fe8001e407800e94f5000ecff360060
:10507c000080fa00000006000800fa0010079800f3
:10508c00220798003307980008c8bf000004a2004c
:10509c000004e000020032000040eb002800370062
:1050ac000040eb00004f7800210037001e80fb0011
:1050bc006a00b90080007800e09620000080400073
:1050cc00100078000000e00018003a001e80fb0081
:1050dc006a00b90080007800e09620000080400053
:1050ec009e009000010878001e80fb006a00b90049
:1050fc008000780000972000008040002e01900076
:10510c00be0190000288be001e80fb006a00b90040
:10511c008000780040972000008140006000b800bb
:10512c000089be0010c0b300050037001e4fe80018
:10513c001e407800e94f5000dcff36000040eb00c9
:10514c000080fa00000006000200fa00000f780050
:10515c001e0078000000e00003003200e10f500058
:10516c001500320018003700420620008000eb00ca
:10517c00e096200042ee07006105800080ff2f00c2
:10518c00008060000000a000600588008900a90074
:10519c009a21ef0000e82300f00c880000002a00a0
:1051ac00100d88009900a80010c0b30008e8b700e3
:1051bc0010c0b300050037009900a9000868ef0083
:1051cc0010c0b300010037000040eb000080fa0073
:1051dc00000006000200fa00000f78001e007800a4
:1051ec00e20f500013003200e20f500003003e00ab
:1051fc00e10f50000600320029003700e30f500089
:10520c0015003200e40f50001c003200240037005f
:10521c0001358000000420000080600000f0a70031
:10522c000000ea000000e9004f00de0000407800ba
:10523c001c00370001358000000820000080600051
:10524c0000f0a7000000ea000000e9004f00de00bb
:10525c000040780013003700213380000008200044
:10526c000080600000f0a7000000ea000000e900e8
:10527c004f00de00004078000a0037000135800046
:10528c00000022000080600000f0a7000000ea008f
:10529c000000e9004f00de000040780001003700fc
:1052ac000040eb000080fa00000006000200fa004b
:1052bc00000f78001e007800e20f50000d00320045
:1052cc00e20f500003003e00e10f500006003200d8
:1052dc0010003700e30f500009003200e40f5000bb
:1052ec000a0032000b0037009ec6a800a6c6a90013
:1052fc00080037009ee6a800a6e6a90005003700c6
:10530c0062e6a8006ae6a900020037009fa6a80082
:10531c00000000000080fa00000006000000fa0007
:0c532c00baf807000080fa00000006003c
:020000040000fa
:020000040015e5
:047e0000ffff000080
:020000040000fa
:020000040015e5
:047e2000ff1f000040
:020000040000fa
:020000040015e5
:047e30000bffff0045
:020000040000fa
:020000040015e5
:047e3800beffff008a
:020000040000fa
:020000040015e5
:047e40009fffff00a1
:020000040000fa
:020000040015e5
:047e4800fbffff003d
:020000040000fa
:020000040015e5
:047e5000deffff0052
:020000040000fa
:020000040015e5
:047e5800efffff0039
:00000001FF
