:020000040000fa
:080000000001040000000000f3
:020000040000fa
:04000800b002000042
:020000040000fa
:04000c00c602000028
:020000040000fa
:04001400dc0200000a
:020000040000fa
:04001800f2020000f0
:020000040000fa
:040048000c020000a6
:020000040000fa
:10020000ef8f20000eff27000e0188000000000085
:10021000000020000000e000020032000001200089
:100220002002880014000700030107000000e0001e
:1002300003003a00e0b8210001002000020037006e
:100240000000200001002000810f7000010032003a
:1002500014000700000020000000e000020032004f
:1002600000000200000000009e18020000000000d4
:100270000040da000000fe004440a900e001200038
:100280000000e00003003200002020009001880000
:100290004440a800000006008a1f78008b1f7800e9
:1002a00000000600a1028800800478000000eb0036
:1002b0001f003700e284440054a0b4009905ba003e
:1002c000e284440054a0b4009906ba00e2844400d9
:1002d00054a0b4000006eb00476fde00fd07b2003b
:1002e000ae018800636ce10003003a00eaff0700fa
:1002f0000000eb000e003700606ce10008003a00df
:10030000004deb000a05e800020039003420ec0043
:100310000af0a0008b05e900f9ff3e000400370059
:100320006168e100010032000086eb000b0007006d
:1003300019c7ba001905ba000e04e00003003a001c
:100340000a00e000dbff3a0000000600fe07b200f2
:10035000ae0288008a047800f5ff37000cd0a300b5
:10036000e20f4d001c00390089027800354dba00bb
:100370000a05e800020039003420ec000af0a00071
:100380008b05e9000f003200254dba000a05e80090
:10039000020039003420ec000af0a0008b05e900cf
:1003a000080032000c00e0000600320015cdba0053
:1003b0000a05e800020039003420ec000af0a00031
:1003c0008b05e9008984e80054a0b4000b00e0002c
:1003d000e2ff3a00000006009902ba00055d7800cd
:1003e0008b05e900f7ff3200c82ade00055d7800c2
:1003f0008b05e900f3ff32000c00e000f1ff320052
:1004000019ddba00eeff37000819040000000000f3
:1004100012190400000000003600f800809fbe00a2
:10042000829fbe00849fbe00869fbe003200f800ff
:100430003400f80010002000a001880000202000f7
:10044000900188000200fa000040eb00004f7800a5
:10045000360037001e80fb006a00b900800078007b
:10046000c080200000804000100078000000e00004
:100470002d0032001e81fb006a10b90000007800d8
:10048000e6004000c0802000008040001000be0058
:1004900061004000e08048006a11b90082017800e4
:1004a00022812000028141000089be001e80fb00e5
:1004b0006a00b90000007800e6004000c08020001b
:1004c000008040001001be001e80fb006a00b900e1
:1004d000000078008080e800c0802000008040009c
:1004e0001000be00800f5100818f59000e003a00ad
:1004f0001e80fb006a00b90080007800c0802000e8
:100500000080400010007800000001001e80fb0009
:100510006a00b9008000780020812000008140003e
:100520006000b8000089be001e4fe8001e40780041
:10053000e94f5000c7ff36008900a9000080fa008b
:100540003400f9003200f9004f03be004f02be0034
:100550004f01be004f00be003600f900004006000b
:100560003200f8003400f800881f780018002000de
:10057000a801880008202000980188004f04780016
:100580000000fa008020a900ffff37003200f800c9
:100590003400f800881f780018002000a8018800a7
:1005a00008202000980188004f0478000000fa001d
:1005b0008060a900ffff37003200f8003400f80027
:1005c000881f780018002000a8018800082020005b
:1005d000980188004f0478000000fa008040a900cc
:1005e000ffff37003200f8003400f800881f780061
:1005f00018002000a8018800082020009801880029
:100600004f0478000000fa008080a900ffff370047
:100610000600fa00000f78001107980022079800e2
:100620001e009000ae009000f20507002e00900022
:100630000080fa0000000600000005000000fa003b
:1006400068815700cfb89700e08c200014000700a5
:100650000080fa00000006008001780002003700e8
:10066000815978000201e9000200e000fcff3a0035
:1006700000000600e18c2000af023700d00190009e
:10068000028151004240a9000300340010017800ab
:10069000014978000208e800010078000000060027
:1006a000f6874700889fbe008a9fbe008c9fbe00d1
:1006b0008e1f780000057800a1b79f000207780020
:1006c0008004eb0090023700afb097008100e80093
:1006d000a1b79f0051c2b300814f500003003a0000
:1006e000afb097000004eb0011003700ba00900093
:1006f0000000fb000168a300070032000901780038
:10070000800078000a007800dcff07000000e000ad
:1007100005003a007c0237008a0078008602070054
:10072000e10f4000780232008904e80076023700c9
:100730000100780031417800d3c2b300834f5100eb
:100740000c00320007003c00edc15100834f510006
:100750000a003200ebc14100834f51000d003a0006
:100760000800370003c3b300834f510009003a006b
:10077000060037000830a000edff37000800a00099
:10078000ebff37000810a000e9ff37000820a000a9
:10079000e7ff37000818a300010032000800a1009d
:1007a0000838a300010032000820a1008200fb00ed
:1007b0000103b100e98f50000c003e0000017800f9
:1007c0008000eb006a08b900b201fb000303b1002e
:1007d00080804100020078009201fb000303b10019
:1007e000e98f5100f7ff3600060037008000eb006c
:1007f000a3c2b300834f510002003a00ce0078003c
:100800000000e8008005eb00e2c2b300904f110049
:1008100009003a0008e0a00064415100d04f1100e7
:100820000300320000017800010278000600370062
:10083000ce0578000000e8000001780009003700cc
:100840006a58b9008085410002007800b201fb00bf
:100850000303b100e98f5100f9ff360084007800ee
:10086000f5ff370032407800a2b79f00c3c6b3003f
:10087000834f5000250032000f003c0032c6b30009
:10088000824f50008800320004003c000004e00069
:10089000220232006b4151000f00370042c6b30004
:1008a000824f50001700320065414100824f5000d6
:1008b00094003a001300370032c7b300824f500053
:1008c0001b00320007003c0064415100824f500081
:1008d000100032000241e800824f500089003a00c7
:1008e0000f00370052c7b300824f50008a00320019
:1008f00063414100824f500082003a00e0df9f00d8
:1009000009003700e0df9f00850037000840a000a5
:10091000d4ff3700e0df9f000860a00080003700b0
:10092000e0df9f000850a0000870a0007c003700a6
:10093000e0df9f004e007800000678000000e00035
:1009400001003a002c8920000c0178000000eb0027
:10095000010037000000e800e24178000304e000f5
:10096000fcff3a00800678000b00e0000300320034
:100970008d8f5500010031008b0678008005eb005b
:100980008d8f5000010036008d8550006804640092
:100990002a003a00110037003a0090000068a300d6
:1009a0000700320009017800010220000a007800e7
:1009b00032ff07000000e00006003a0006003700a2
:1009c0008a00780000022000db010700e10f4000f0
:1009d000010032008904e8008b05e9000b00e0000b
:1009e000edff3a008085eb00140037003a009000dc
:1009f0000068a300090032000c007800b000fb0082
:100a000000067800090178000a0078001bff070043
:100a10000000e00008003a00080037008c00780071
:100a20003100fb00010678008a007800c20107004f
:100a3000e10f4000010032008904e8000d00780059
:100a40008006e9000000e000e8ff3a000800e0004e
:100a5000ad013200110037003a0090000068a30099
:100a60000700320009017800010220000a00780026
:100a700002ff07000000e00006003a000600370011
:100a80008a00780000022000ab010700e10f40005f
:100a9000010032008904e8008b05e9000b00e0004a
:100aa000edff3a00980137004e017800cf91de004b
:100ab000c81ade004818dd004812de00040270008b
:100ac000e4df9f000848a300080032000404e000af
:100ad00006003200e14f420004003200f4df9f00c4
:100ae00082e79f002d00200002003700f2df9f0008
:100af0001d002000e2fd2f000f0141000206e8006a
:100b000099ff3700e0df9f00ecfd2f000f06460045
:100b10001d00200094ff3700e0df9f00080cb300a9
:100b200008017800020cb200700064000200e000ce
:100b30000d003a000000e000020032004e06be0048
:100b4000020037004e067800cfe6de00e00f5600c8
:100b5000e08f5e000a003d003800b300600616001a
:100b6000e0861e00060037000000e00002003200b0
:100b70004e06be00020037004e0678008006eb00ed
:100b80000b00e00005003a008c8576000bf0a70012
:100b90008b05ea008b05e900cf5dde008801780057
:100ba000030cb200e3b79f0000042000808f5100c7
:100bb0002300320003003c000300e0000800320084
:100bc0002d003700000820006fb29700800f520000
:100bd0000d003200000c2000800f520026003a0069
:100be000a289200010c0b30064014100b20f56007a
:100bf000a28f5e001f0039000040e800ea4f50005d
:100c0000f9ff3a001b00370010c0b30002012000ba
:100c100003002000820f5600838f5e00150039000c
:100c2000441add00cc11de00830172004411dd00a6
:100c30000040e800e84f5000f6ff3a000d00370092
:100c400010c0b3008200200003002000820f560075
:100c5000838f5e0007003900431add00cd11de00ee
:100c6000830172004311dd000040e800eb4f5000ab
:100c7000f6ff3a00e0df9f006fd997000200fb000b
:100c80008b0f500002003d00ebdf9f000300370098
:100c9000808f550001003d00800578000100e000d4
:100ca0000300320063006400010032008100e900ab
:100cb00008e8a300050032008b8f500002003400ca
:100cc0008b805000010037008000eb00efd99700c7
:100cd0000300fb000002eb00d4b79f00808f5000a0
:100ce0000200340000805000d0b79f000828a30005
:100cf00040003200610164000818a3000f003200b8
:100d00003a0090000068a30006003200b102200003
:100d10000200e000010032008180e8000901780053
:100d20000d003700b00220000200e0000100320098
:100d30000080e8008a0078000e0037000200e00022
:100d4000100032003a0090000068a3000700320053
:100d500009017800010220000a00780047fe070020
:100d60000000e00006003a00060037008a00780024
:100d700000022000f0000700e10f400001003200f7
:100d80008904e8005fb097000000e0005a003200dc
:100d9000bcb79f00cdb79f00800678003a00900056
:100da0000068a30007003200090178000103200059
:100db0000a00780031fe07000000e00006003a005b
:100dc000060037008a00780000032000da000700e0
:100dd000e10f4000010032008904e8008d06e900bf
:100de000eeff3a00ddb79f003fb69700cfb6970001
:100df00041003700dfb197000300e0001a00320025
:100e00000838a30018003a00bcb79f00cdb79f0078
:100e1000830678003a0090000068a30007003200c3
:100e200009017800010220000a00780013fe070083
:100e30000000e00006003a00060037008a00780053
:100e400000022000bc000700e10f4000010032005a
:100e50008904e8008d06e900eeff3a00ddb79f0047
:100e60003fb69700cfb69700610164000818a30051
:100e70000f0032003a0090000068a3000600320024
:100e8000b10220000200e000010032008180e80091
:100e9000090178000d003700b00220000200e000d8
:100ea000010032000080e8008a0078000e00370060
:100eb0000200e000100032003a0090000068a30039
:100ec0000700320009017800010220000a007800c2
:100ed000eafd07000000e00006003a0006003700c7
:100ee0008a0078000002200093000700e10f400014
:100ef000010032008904e8000b03e9006330b90007
:100f000000017800b2b79f004233dd00a0892000c5
:100f1000000343008e01780093b79f000807780014
:100f2000060478005c0037008b05e900000420000f
:100f30006fb29700800f52003800320003003c006f
:100f40000400e000080032003e00370000082000e6
:100f5000efb09700808f500020003200000c20007e
:100f6000808f500037003a000e48a3001000320076
:100f70001802be000401be000c00be00f4b79f00c2
:100f800085bf9f00ee000700e0df9f000000fb0030
:100f9000cf80de007fb297008fba97000401be00b9
:100fa000f70007000006560081865e000700370044
:100fb00018017800110009000286d800a200200064
:100fc000110009000280d800e1df9f006fd997006f
:100fd0000243b000e2df9f001a00370010882000b3
:100fe0000e58a3000100320000872000a1892000d4
:100ff000810054000c01be008100e90003003300b1
:101000008301d1000281d300fbff3700ef006100b4
:10101000e0c07800e1df9f000a0037000c00be004e
:10102000bfb197008301e900030033008100d100c4
:101030000080d300fbff3700674060000043b00032
:10104000e0df9f00ba0090006fda97000400fb0019
:101050000168a300070032000901780080007800d1
:101060000a00780085fd07000000e00005003a0056
:10107000050037008a0078002f000700e10f4000cc
:10108000010032008904e8003fb09700630050007f
:10109000b0b79f00640454000b00e000a2ff3a00c8
:1010a0000e0478001fb797000838a300160032001e
:1010b000dfb097000100e000130034000104780065
:1010c0003a0090000068a300070032000901780090
:1010d000010220000a00780068fd07000000e0001f
:1010e00006003a00060037008a007800000220005f
:1010f00011000700e10f4000010032008904e80000
:101100000804e900eeff3a002fb197001240780082
:10111000e0df9f000004e0006bfd3a00090078006a
:101120004f0778004f06be004f05be004f04be00bb
:101130006f01b10000000600889fbe000104780026
:10114000b80090008084eb000118a3003a00320040
:10115000180190000198a30002003a000200e0008c
:1011600035003a000190a000310498008004780016
:10117000f90fb2000200e00002003a0028009000df
:10118000000c7800ea8f540005003a000178a300b3
:1011900003003a0088007800d0002000e6ff070036
:1011a00018009000d8009000810f50000b00320012
:1011b0000000e80010049800180078000948780042
:1011c000000ce80011c0b300808f200001487800b7
:1011d000ea8f540018003a000500370088007800b4
:1011e00009407800170007008004780012003700db
:1011f000380090000088a3000f0032001801900012
:10120000a80090004800900001fd070098009000a1
:10121000810f500004003200380090000003b3003a
:10122000300498008084eb000000eb00100498006c
:1012300028009000000c7800090078004f04be00e0
:10124000000006000200fa00889fbe00a0ff9f0079
:1012500001047800380090000068a30033003a00d1
:10126000e200600005003a000003b300300498007b
:10127000110498000080eb002e003700d804900085
:101280000900e00006003a0012002000e680570046
:1012900048009000defc0700190498002300370086
:1012a000a80090000100e00008003a00b18f200083
:1012b00021049800010c78002100200051049800be
:1012c000110498000030a00030049800180190002c
:1012d000a800900048009000cdfc07002800900076
:1012e0008080eb0011049800aff897000148780067
:1012f000000ce8002ff89700ea4f50000b003a006e
:10130000380090000088a300080032001801900007
:10131000a800900048009000bdfc07000000eb0012
:1013200010049800a8009000010c7800aff8970016
:101330000100fb004f04be000080fa000000060020
:101340006022b800060220000000d0008180d20098
:101350000482d2008582d2000000a0000202520066
:1013600083825a00030031000202420083824a0055
:101370000000a1000603e900f3ff3a0000000600a8
:10138000020ab900001bb9000200b8008100420047
:0813900081004300000006008b
:020000040000fa
:101398006400000000000000546500007374000041
:1013a80000250000640000000c000000000300009d
:1013b800030600000104000006020000050000000a
:0c13c800030500006400000000000000ad
:020000040000fa
:1013d4001200fa00000f9800e3004700a29d2800c5
:1013e4000b000900b258780000c3b3000000fb00f2
:1013f4004400dd008040780070c3b3006f4060009b
:1014040000c07000804078000e0890007140980081
:1014140000c3b3000000fb004400dd0080407800fe
:1014240040c3b3006f40600000c07000804078008b
:101434000e0890006140980010c3b3000000fb0048
:101444004400dd008040780040c3b3006f4060007a
:1014540000c07000804078000e0890005140980051
:1014640020c3b3000000fb004400dd00804078008e
:1014740040c3b3006f40600000c07000804078003b
:101484000e0890003140980020c3b3000000fb0018
:101494004400dd008040780000c3b3006f4060006a
:1014a40000c07000804078000e0890001140980041
:1014b400e0c4b3000000fb00a1042000810f500031
:1014c4001e003200a1042000810f50000a003c00dd
:1014d40041042000810f50006100320061042000ab
:1014e400810f50003200320011042000810f50009f
:1014f400420032005d003700e1042000810f5000fb
:1015040054003200e1042000810f500004003c002c
:10151400d1042000810f500028003200530037000e
:10152400f1042000810f50004700320031052000f3
:10153400810f5000410032004c003700f0c6b30068
:101544000000fb0011062000810f5000040032004f
:1015540051072000810f500004003200430037007f
:1015640010c0b300104798001000370060c7b300e4
:101574000000fb00c1062000810f5000070032006c
:10158400e1062000810f5000010032000600370000
:1015940060c0b300104798000300370070c0b30068
:1015a4001047980000000000000000002f003700e2
:1015b40020c0b300104798002c00370060c7b30068
:1015c4000000fb0021072000810f500004003200be
:1015d40091072000810f50000400320023003700df
:1015e40030c0b300104798000300370050c0b30068
:1015f40010479800000000001c003700f0c6b3003c
:101604000000fb0001072000810f5000040032009d
:1016140051072000810f50000400320013003700ee
:1016240040c0b300104798000300370080c0b300e7
:1016340010479800000000000c00370090c0b30071
:10164400104798000900370000c1b3001047980004
:101654000600370010c1b30010479800030037009c
:1016640020c1b30010479800000000000e0890004d
:101674009e4090002140980060c0b300004f780065
:101684000e089000104090000080fb004400de0033
:10169400004078006a00b9000000780080407800bb
:1016a4000e089000104090006f40600000c04000a1
:1016b400204798002e4090000080fb004200de008e
:1016c400804078002e40900000c040001e4f400033
:1016d4002e409000634060000004e00004003a00e3
:1016e4001e409000e24f500001003e001e4fe900f2
:1016f4001e4090000080fb000000e900000047004d
:10170400304090001e4f40000e0890003040900082
:101714000080fb004400de00004078006a00b9004d
:1017240000007800804078000e089000304090005f
:101734006f40600000c040001e4f40009e80fb00d0
:101744007000200000017800110009008280d80098
:101754008000fd00004f78000e0890009e40780045
:10176400414098000e089000104078000004a20048
:101774000004e000230032000e08900010409000a6
:10178400f90007008e089000904098000e08900021
:1017940020409000f40007008e089000a0409800bc
:1017a4000e08900030409000ef0007008e08900073
:1017b400b04098000e08900040409000ea000700f6
:1017c4008e089000c04098000e0890005040900091
:1017d400e50007008e089000d04098000e089000a5
:1017e40060409000e00007008e089000e040980000
:1017f4000e08900070409000db0007008e089000f7
:10180400f04098000080fa00000006000200fa0090
:10181400881f7800000f7800220020006004200058
:101824007105200003102000804978008149780068
:1018340082497800cc21ef00871f7800881f780048
:101844000500fc0057052000373b8800a80a20004b
:10185400383b8800cd61a9004f047800cf0378009d
:101864001e007800104078000004e00022003200de
:101874001e007800104090000080fb004800dd004e
:10188400800078001e007800204090000080fb005b
:1018940001007000100f88001e0078003040900096
:1018a4000080fb00c800dd001e007800404090006e
:1018b4000080fb0001007000000f88001e0078000b
:1018c400504090000080fb00c800dd001e0078003e
:1018d400604090000080fb0001007000f00e880062
:1018e4001e007800704090000080fb004800dd007e
:1018f400e00e8800270037001e007800104090009a
:10190400840007000080fb004804dd001e0078000e
:10191400204090007f0007000080fb00080070005a
:10192400100f88001e0078003040900079000700f6
:101934000080fb004804dd001e0078004040900059
:10194400740007000080fb0008007000000f88008e
:101954001e007800504090006e0007000080fb00dd
:101964004804dd001e007800604090006900070014
:101974000080fb0008007000f00e88001e00780054
:1019840070409000630007000080fb004800dd0009
:10199400e00e880010002800600e88004f047800d4
:1019a4000080fa00000006000400fa001007980006
:1019b400d861a80000000000c00e8000680060002c
:1019c4000000e000fcff3200910f8000010f78005e
:1019d4001e007800804078001e009000214098008e
:1019e4001e0078004800de00804078001e00900051
:1019f40011409800810f8000010f78001e007800cc
:101a0400804078001e009000414098001e0078003d
:101a14004800de00804078001e00900031409800ad
:101a2400710f8000010f78001e007800804078005c
:101a34001e009000614098001e0078004800de00ff
:101a4400804078001e00900051409800610f800093
:101a5400010f78001e0078004800de008040780006
:101a64001e009000714098001e0090001040780005
:101a74000004a2000004e000230032001e009000d5
:101a840010409000380007009e009000904098009d
:101a94001e00900020409000330007009e0090003c
:101aa400a04098001e009000304090002e000700d7
:101ab4009e009000b04098001e00900040409000ae
:101ac400290007009e009000c04098001e0090006e
:101ad40050409000240007009e009000d0409800e1
:101ae4001e009000604090001f0007009e009000c0
:101af400e04098001e009000704090001a0007001b
:101b04009e009000f0409800d861a9000080fa007f
:101b1400000006000200fa00004f78009e80fb00df
:101b2400d0cc2c000008b8004308de000040780048
:101b34000080fb004400dd00804178001e81fb0032
:101b4400d0cc2c000010b8004308de006a00b900b5
:101b540000007800000051000040780000c07100cf
:101b64000080fa00000006000200fa00004f78002e
:101b74001e80fb004400de00004078006a00b900cb
:101b840000007800804078001e4178006f406100ba
:101b940000c040000080fa00000006000200fa00c5
:101ba400000f78001e00780018ff07000080fa007c
:101bb400000006000200fa00000f78001e00780002
:101bc40079ff07000080fa00000006000800fa0010
:101bd400889fbe008a9fbe008c9fbe004109800082
:101be400f07f2e00008060004009880041098000d9
:101bf4000030200001007000400988004109800085
:101c0400f0f32f00008060004009880028a1a9009b
:101c14002881a9002841a9000020200090098800fb
:101c240031e1a90031c1a8003181a8003141a800e7
:101c34003121a80031a1a8003101a9008109800047
:101c4400f0f92f000080600080098800a10980005d
:101c5400f0ff230000806000a0098800a109800033
:101c6400000c200001007000a0098800a109800078
:101c7400c003200001007000a0098800a0098000b2
:101c84003000b300a00988002a61ef001000200092
:101c9400700988002de1a8002dc1a8002d81a8009d
:101ca4002da1a900610980000060200001007000de
:101cb400600988002d01a80029e1a80000882300fc
:101cc400110020008c01070000882300110020006f
:101cd400890107003203200001002800010f780069
:101ce4004100200011079800a00180009e0190008f
:101cf4009e007800a301880082087800a001880073
:101d040050032000010020007b0107002203200073
:101d140001002800210798004100200031079800a5
:101d2400a0018000be019000ae009000a3018800d5
:101d340082087800a00188005003200001002000e0
:101d44006d010700820320000c0028004d002000d4
:101d5400a00180008d0178008c007800a301880028
:101d640082087800a00188005003200001002000b0
:101d740061010700c20020000a0028004b00200077
:101d8400a00180008b0178008a007800a3018800fc
:101d940082087800a0018800500320000100200080
:101da40055010700620020000800280049002000b7
:101db400a00180008901780088007800a3018800d0
:101dc40082087800a0018800500320000100200050
:101dd400490107007800070010c0b3004f06be0099
:101de4004f05be004f04be000080fa00000006004c
:101df4000400fa00000f7800110798000a00370069
:101e04001e007800104078000000fb000000e00095
:101e1400110032001e007800104078001e0fe80008
:101e240010000700000000001e00900000f0a70052
:101e34000000ea000000ea004f00de0000407800e5
:101e44009e0090008100e900110798000004e00062
:101e5400ebff3a0001003700000000000080fa00a8
:101e6400000006000200fa00889fbe00004f7800c0
:101e74001e00fb00ea0f50000b003200ea0f500076
:101e840003003c00e80f50000e003200140037003d
:101e9400ec0f500010003200ed0f500010003a001b
:101ea400640007004100370004c8bf000004e000dc
:101eb40002003a00050107003c003700f800070063
:101ec4003a0037007c00070000c2b300e5ff0700ba
:101ed400790007003500370037000700330037006a
:101ee40005c8bf00f04f500020003a000568ef001d
:101ef40004c8bf000004e0000f003a00020c2000f8
:101f04000400280045002000a0018000850178001d
:101f140084007800a301880082087800a00188006a
:101f24005003200001002000f300070010c0b3009c
:101f340004e8b7000d003700040820000200280060
:101f440043002000a0018000830278008200780012
:101f5400a501880084087800a001880050032000af
:101f640001002000e40007000468ef001e01fb00ec
:101f74002800280049002000a00180008901780081
:101f840088007800a301880082087800a0018800f6
:101f94005003200001002000d700070005c8bf003f
:101fa4000040e80005e8b700000000004f04be0050
:101fb4000080fa00000006000000fa00889fbe00be
:101fc400130020000000280041002000a20180002e
:101fd4000102780000007800a4018800030878005a
:101fe400a2018800a088200001002000c200070090
:101ff400220020000800280049002000a0018000e1
:102004008901780088007800a3018800820878009c
:10201400a0018800a088200001002000b60007006d
:102024000468ef000568ef004f04be000080fa006a
:10203400000006000000fa004480200014427800ea
:102044000404e0000d003a00040820000200280007
:1020540043002000a0018000830278008200780001
:10206400a501880084087800a0018800500320009e
:1020740001002000a00007000c003700030c200022
:102084000000280041002000a20180000102780025
:1020940000007800a401880003087800a2018800e9
:1020a4005003200001002000930007000568ef00a2
:1020b4000080fa00000006000200fa0056802000aa
:1020c400164378000604e00028003a0004c8bf0064
:1020d4000004e0000f003a00020c20000400280075
:1020e40045002000a001800085017800840078006c
:1020f400a301880082087800a00188005003200012
:10210400010020007c00070010c0b30004e8b70001
:102114000d003700040820000200280043002000be
:10212400a00180008302780082007800a501880065
:1021340084087800a00188005003200001002000da
:102144006d0007000468ef000040eb00004f7800ca
:1021540002003700190007001e4fe8001e407800f7
:10216400ee4f5000fbff3600120037005280200073
:10217400124178000241e900824178005180200038
:10218400834878000301200000002800410020005b
:10219400a20180000102780000007800a4018800f8
:1021a40003087800a20188005003200001002000e9
:1021b400510007000080fa00000006000000fa0049
:1021c400889fbe008a9fbe004301200000002800b3
:1021d40041002000a2018000010278000000780084
:1021e400a401880003087800a2018800500320009d
:1021f400010020004000070005c8bf000040e800bf
:1022040005e8b70005c8bf00f04f500020003a00b1
:102214000568ef0004c8bf000004e0000f003a00a6
:10222400020c20000a0028004b002000a0018000be
:102234008b0178008a007800a30188008208780066
:10224400a001880050032000010020002a0007009c
:1022540010c0b30004e8b7000d00370002082000e6
:102264000800280049002000a001800089017800ae
:1022740088007800a301880082087800a001880003
:1022840050032000010020001b0007000468ef0039
:102294004f05be004f04be000080fa000000060097
:1022a4000200fa000040eb00004f78000200370003
:1022b40081ff07001e4fe8001e407800ef4f5000da
:1022c400fbff36000080fa00000006000200fa005e
:1022d4000040eb00004f780002003700b7ff070012
:1022e4001e4fe8001e407800ef4f5000fbff360001
:1022f4000080fa00000006000400fa00008fbe000f
:1023040005003700000000000081eb008081eb0035
:102314001e0f41005e9749001e00be00e00f5000f2
:10232400e08f5800f7ff3a000080fa000000060032
:102334000200fa00004f78001e4078000004e0001c
:102344000d003200f20020000400280045002000a7
:10235400a00180008501780084007800a301880032
:1023640082087800a00188005003200001002000aa
:10237400e1ff07000c003700c40020000200280021
:1023840043002000a00180008302780082007800ce
:10239400a501880084087800a0018800500320006b
:1023a40001002000d4ff07000080fa0000000600ae
:1023b4000200fa00000f78001e007800e40f5000bd
:1023c40018003200e40f500007003e00e20f5000f6
:1023d40010003200e20f500010003e00e10f5000e8
:1023e4000a00320019003700e60f500011003200d5
:1023f400e60f50000d003900e70f50000f003200c7
:10240400e80f50000f003200100037006606a800e5
:102414000e0037006626a8000c0037006646a800a8
:102424000a0037006666a800080037006686a80020
:102434000600370066a6a8000400370066c6a80098
:102444000200370066e6a800000000000080fa00e1
:10245400000006000200fa00000f78001e00780059
:10246400e40f500018003200e40f500007003e0053
:10247400e20f500010003200e20f500010003e0046
:10248400e10f50000a00320019003700e60f500037
:1024940011003200e60f50000d003900e70f500024
:1024a4000f003200e80f50000f0032001000370018
:1024b4006606a9000e0037006626a9000c00370046
:1024c4006646a9000a0037006666a90008003700be
:1024d4006686a9000600370066a6a9000400370036
:1024e40066c6a9000200370066e6a90000000000e5
:1024f4000080fa00000006000200fa00000f7800d5
:102504001e007800e40f500038003200e40f500041
:1025140007003e00e20f50001a003200e20f5000a4
:1025240025003e00e10f50000a0032007000370021
:10253400e60f500047003200e60f50003800390023
:10254400e70f500050003200e80f50005b003200eb
:10255400670037003033800000407800614060003d
:102564000004a200614060000080fb006100600084
:10257400313380000100a100010070003033880075
:102584005b003700303380000000d1006140600000
:102594000004a200614060000080fb006100600054
:1025a40000004000313380000110a10001007000e0
:1025b400303388004e003700303380004200de00a4
:1025c400614060000004a200614060000080fb00e4
:1025d400610060004200dd00313380000120a10071
:1025e4000100700030338800410037003033800030
:1025f4004300de00614060000004a200614060000e
:102604000080fb00610060004300dd003133800086
:102614000130a1000100700030338800340037001d
:10262400303380004400de00614060000004a200fa
:10263400614060000080fb00610060004400dd0038
:10264400313380000140a100010070003033880064
:1026540027003700303380004500de006140600011
:102664000004a200614060000080fb006100600083
:102674004500dd00313380000150a10001007000ed
:10268400303388001a003700303380004600de0003
:10269400614060000004a200614060000080fb0013
:1026a400610060004600dd00313380000160a1005c
:1026b40001007000303388000d0037003033800093
:1026c4004700de00614060000004a2006140600039
:1026d4000080fb00610060004700dd0031338000b2
:1026e4000170a10001007000303388000000000078
:1026f4000080fa00000006000200fa00000f7800d3
:102704001e007800e40f50002a003200e40f50004d
:1027140007003e00e20f500016003200e20f5000a6
:102724001c003e00e10f50000a0032004c0037004c
:10273400e60f50002f003200e60f5000250039004c
:10274400e70f500034003200e80f50003b00320025
:1027540043003700303380006100600000f0a700c0
:102764000000ea000000ea004f00de0000407800ac
:102774003c003700303380006200600000f0a700a6
:102784000000ea000000ea004f00de00004078008c
:1027940034003700303380006400600000f0a7008c
:1027a4000000ea000000ea004f00de00004078006c
:1027b4002c003700303380006800600000f0a70070
:1027c4000000ea000000ea004f00de00004078004c
:1027d40024003700303380007000600000f0a70050
:1027e4000000ea000000ea004f00de00004078002c
:1027f4001c0037003133800000022000008060009c
:1028040000f0a7000000ea000000ea004f00de002c
:1028140000407800130037003133800000042000aa
:102824000080600000f0a7000000ea000000ea0059
:102834004f00de00004078000a003700313380008a
:10284400000820000080600000f0a7000000ea00fb
:102854000000ea004f00de0000407800010037006d
:102864000040eb000080fa00000006000200fa00bd
:10287400000f78001e007800e40f500018003200aa
:10288400e40f500007003e00e20f50001000320039
:10289400e20f500010003e00e10f50000a00320029
:1028a40019003700e60f500011003200e60f500007
:1028b4000d003900e70f50000f003200e80f500000
:1028c4000f003200100037006206a9000e00370026
:1028d4006226a9000c0037006246a9000a003700ee
:1028e4006266a900080037006286a9000600370066
:1028f40062a6a9000400370062c6a90002003700de
:1029040062e6a900000000000080fa000000060052
:102914000000fa0067c6a80067e6a80069e6a800f8
:1029240069c6a80063e6a90063c6a9009be4a900e0
:1029340050022000c02488009b24a9008a20a900fa
:102944009be4a8000080fa00000006000200fa00e0
:1029540067c6a80067e6a8002133800000002400b1
:10296400008060000000e00002003a001000200037
:1029740019003700a0002000000f7800080037007d
:102984002133800000002400008060000000e0008b
:1029940007003a0067e6a90067e6a8001e0fe900f1
:1029a4001e0078000000e000f5ff3c000100370045
:1029b40000000000e03680006c006000ec0f500066
:1029c40002003200200020000300370067e6a9005f
:1029d40067e6a8000000eb000080fa000000060093
:1029e4000000fa009a64a9009ee4a9009f44a9008b
:1029f4000080fa00000006000200fa009be4a9002f
:102a0400d2ff0700000f78001e0078000000e000ed
:102a1400020034000080eb00020037009be4a800b1
:102a24000000eb000080fa00000006000200fa003b
:102a34009a24a80000000000f12480000040200037
:102a4400008060000000e000020032002000280046
:102a54000f0037000000eb00000f7800070037007c
:102a64001e0fe800803e20009e007800808f5000fa
:102a7400020034001000280005003700d024800034
:102a8400620060000000e000f5ff3a000000eb0087
:102a94000080fa00000006000400fa0020479800b5
:102aa400f0248000610060000000e00002003200b9
:102ab40010002800220037002e4090000000fb0088
:102ac400b02488000000eb00000f780007003700f6
:102ad4001e0fe80000f421009e007800808f500053
:102ae400020034002000280015003700f124800083
:102af40000002400008060000000e000f4ff3a00c1
:102b0400f124800000402000008060000000e0000c
:102b1400030032009f44a900300028000800370059
:102b2400f124800000002800008060000000e00024
:102b34000200320010002000010037000000eb000a
:102b44000080fa00000006000200fa009a04a800bf
:102b540000000000f124800000402000008060009c
:102b64000000e000040032009a04a9009f44a90078
:102b74002000280020003700f124800000082000f5
:102b8400008060000000e000040032009a04a90004
:102b94009ee4a90030002800170037000000eb0075
:102ba400000f7800070037001e0fe800803e200069
:102bb4009e007800808f500002003400100028002e
:102bc4000d003700d0248000610060000000e000a8
:102bd400f5ff3a00f12480000040200000806000ee
:102be4000000e000030032009f44a90020002800f8
:102bf400010037000000eb000080fa00000006002e
:102c04000200fa009a44a80000000000f1248000a9
:102c140000402000008060000000e000020032005c
:102c2400200028000f0037000000eb00000f7800a0
:102c3400070037001e0fe800803e20009e00780049
:102c4400808f500002003400100028000500370077
:102c5400d0248000640060000000e000f5ff3a002a
:102c64000000eb000080fa00000006000600fa00f5
:102c7400404798004e40900000404000004f7800cc
:102c84005040800061006000004078000004e000d3
:102c94000a00320052ff070057ff07000000e0005f
:102ca40004003a00504080000000a1005040880019
:102cb400020037002000280012003700a2ff07009e
:102cc4000000e0000b003a001e40780072ff07008d
:102cd40010079800caff07000000e00005003a0052
:102ce4001e0090000000e00002003a000000eb002b
:102cf40004003700504080000000a00050408800cd
:102d0400100028000080fa00000006000a00fa0003
:102d140040479800514798003207980043079800ad
:102d24005040800061006000004078000004e00032
:102d340037003a004e409000004040002047980081
:102d440081ff07000000e0000400320050408000d2
:102d54000000a00050408800300037002e40900052
:102d64004dff07000000e00005003200a4ff07004b
:102d7400504080000000a000504088002700370029
:102d84005e40900044ff07000000e00005003200b0
:102d94009bff0700504080000000a00050408800c6
:102da4001e0037000000eb00000f78000d00370014
:102db4001e007800ce009000008040001040780093
:102dc40035ff07000000e000050032008cff07001b
:102dd400504080000000a000504088000f003700e1
:102de4001e0fe8003e0090009e007800808f500087
:102df400efff350082ff07000000e000060032000c
:102e0400504080000000a0005040880003003700bc
:102e14000000000001003700000000000080fa00fc
:102e2400000006000000fa0067c6a80067e6a800d4
:102e340069c6a80069e6a80063c6a90063e6a900fc
:102e4400e0042000c02488009b24a8009be4a80080
:102e54000080fa00000006000600fa00200798002f
:102e64002e0090007900b900000078008000eb008b
:102e7400008fbe00000000001e0090001e007000c5
:102e840000f0a7000000ea000000ea004f00de00a6
:102e9400004078000081eb008081eb001e0f4100b0
:102ea4005e9749000004e000f3ff3a000080fa0056
:102eb400000006000000fa009a04a80000000000c8
:102ec40050048000620060000000e000fcff32005b
:102ed4008a20a9000080fa00000006000000fa0021
:102ee4009a24a800000000005004800062006000e2
:102ef4000000e000fcff32008a20a9000080fa00f4
:102f0400000006000000fa009a44a8000000000037
:102f140050048000620060000000e000fcff32000a
:102f24008a20a9000080fa00000006000000fa00d0
:102f34009aa4a9009a84a80000000000500480000c
:102f4400620060000000e000fcff32008a20a9005b
:102f54000080fa00000006000000fa009aa4a8000d
:102f64009a84a80000000000500480006200600001
:102f74000000e000fcff32008a20a9000080fa0073
:102f8400000006000200fa00004f78001e80fb00db
:102f9400b024880000000000f12480000000240018
:102fa400008060000000e000fbff3a008a20a900d6
:102fb4000080fa00000006000000fa009a64a800ed
:102fc4000000000050048000620060000000e00087
:102fd400fcff32008a20a900a02480000040780071
:102fe4000080fa00000006000000fa000000000063
:102ff400d02480007f0060000000e000fcff3a0065
:10300400f0248000640060000000e000f8ff3a0053
:103014000080fa00000006000400fa00000f7800a7
:1030240011079800a3ff07001e00780000407800f5
:10303400d4ff07001e00900000407800d1ff070075
:10304400b0ff07000080fa00000006000400fa0048
:1030540010002000000f780096ff0700e2ff070031
:103064001e0078008040780001c8bf0000c0400006
:10307400c4ff0700d0ff070020479800b6ff0700f1
:10308400a0ff07006226ef002e4090000080fa00a7
:10309400000006000400fa00204798003147980019
:1030a4008eff07002e409000b6ff07003e409000c0
:1030b400b4ff0700e5ff0700004f78001e80fb0007
:1030c400303388001e4078000080fa0000000600bb
:1030d4000400fa00004f7800114798002247980036
:1030e40074ff0700c0ff07001e407800a5ff07001b
:1030f4001e409000a3ff07002e409000a1ff070090
:1031040080ff07000080fa00000006000000fa00bb
:1031140001c8bf0072c2b30001c2b300ecff0700d4
:1031240001c8bf000041eb0011c2b300e8ff070073
:103134000080fa00000006000200fa00c001070047
:103144000000eb00ff000700421f200003002000e6
:1031540080902100c7000700a20a2000030020007d
:1031640020912100c3000700808e20008040eb00e6
:1031740001487800008f20008040eb00014878006f
:10318400808e200092f80700808e20009ff90700af
:10319400820020008000eb00008f20002df5070046
:1031a400c000200032f50700009d2800801f780031
:1031b40021f507008f87e9001aff0700d3ff0700f6
:1031c40001c8bf0091c2b300b2ff0700004f7800ee
:1031d4001e80fb00801f7800509d2800801f78000f
:1031e40015f50700e4875700401f20001aff070069
:1031f4001e80fb00801f7800809d2800801f7800bf
:103204000df50700e4875700edff37000000fa00d2
:1032140010c0b30008e8b7000080fa000000060000
:103224000000fa0010c0b30000e8b7000080fa0004
:10323400000006000400fa00100798001e00900029
:10324400e40f500004003200e50f50000400320087
:1032540000c0eb0010003700000000000100370040
:10326400000000001e0090000d000700d1cc2c00cf
:103274000100b8004308de00004f780040c6b300e8
:103284009e40780080cf50000200360040c6b30054
:10329400004f78001e4078000080fa00000006000d
:1032a4000400fa00100798001e009000e40f50007c
:1032b40004003200e50f5000040032000080eb00ef
:1032c4001f0037000000000001003700000000006c
:1032d4009e009000613a88004627a8000000eb0099
:1032e400000f780002003700000000001e0fe80005
:1032f400703e20009e007800808f5000faff360058
:103304004627a9000000eb00000f780002003700f8
:10331400000000001e0fe800703e20009e007800b0
:10332400808f5000faff360000000000303a800021
:10333400610060000000e000fcff32009038800073
:103344000080fa00000006000200fa00000f780076
:103354001e007800e40f500003003200e50f500017
:1033640004003a007ea6a8007e86a80010c0b30020
:10337400010037000040eb000080fa000000060066
:103384000200fa00000f78001e0078000000e00040
:103394001a003a00413a8000f0ff230000806000e8
:1033a400403a880000c0eb004ae7b700313a800099
:1033b400f0f02f0000806000303a8800513a80001d
:1033c400f00f2e000080600000c0a000503a88007a
:1033d400313a8000f0cf2f0000806000303a88003e
:1033e400413a800030f82f0000806000403a8800a5
:1033f40047e7a80010c0b300010037000040eb000d
:103404000080fa00000006000400fa00100798008b
:103414000040eb00004f7800110037001e80fb00d5
:103424006a00b90080007800c0802000008040005d
:10343400900078001e009000808f500007003a0032
:103444001e80fb006a00b90080007800c080200064
:10345400008040008000eb00010878001e4fe80067
:103464001e407800e94f5000ecff36000080fa005f
:10347400000006000800fa001007980022079800d0
:103484003307980006c8bf000004a2000004e0004f
:10349400020032000040eb00280037000040eb003f
:1034a400004f7800210037001e80fb006a00b9003d
:1034b40080007800c0802000008040001000780068
:1034c4000000e00018003a001e80fb006a00b9000a
:1034d40080007800c0802000008040009e009000a2
:1034e400010878001e80fb006a00b90080007800a3
:1034f400e0802000008040002e019000be0190007a
:103504000288be001e80fb006a00b90080007800bb
:1035140020812000008140006000b8000089be00c6
:1035240010c0b300050037001e4fe8001e407800ad
:10353400e94f5000dcff36000040eb000080fa0049
:10354400000006000200fa00000f78001e00780058
:103554000000e00003003200e10f500015003200cb
:1035640018003700420620008000eb00c0802000d5
:1035740038f407006105800080ff2f0000806000a0
:103584000000a000600588008900a9009a21ef00ce
:1035940000e82300f00c880000002a00100d8800c9
:1035a4009900a80010c0b30006e8b70010c0b3002b
:1035b400050037009900a9000668ef0010c0b300a9
:1035c400010037000040eb000080fa000000060014
:1035d4000200fa00000f78001e007800e20f50008d
:1035e40013003200e20f500003003e00e10f5000d0
:1035f4000600320029003700e30f500015003200a6
:10360400e40f50001c003200240037000135800014
:10361400000420000080600000f0a7000000ea0021
:103624000000e9004f00de00004078001c00370075
:1036340001358000000820000080600000f0a70031
:103644000000ea000000e9004f00de0000407800be
:103654001300370021338000000820000080600040
:1036640000f0a7000000ea000000e9004f00de00bf
:10367400004078000a003700013580000000220075
:103684000080600000f0a7000000ea000000e900ec
:103694004f00de0000407800010037000040eb00de
:1036a4000080fa00000006000200fa00000f780013
:1036b4001e007800e20f50000d003200e20f5000af
:1036c40003003e00e10f50000600320010003700f6
:1036d400e30f500009003200e40f50000a003200ea
:1036e4000b0037009ec6a800a6c6a9000800370034
:1036f4009ee6a800a6e6a9000500370062e6a80039
:103704006ae6a900020037009fa6a8000000000096
:083714000080fa00000006002d
:020000040000fa
:10371c000408000002000000800000000c080000fb
:10372c006400000080000000060800000200000099
:10373c0080000000e808000010000000800000007d
:10374c0008080000020000008000000000080000d3
:10375c00040000008200000001300f000000000097
:10376c000a0800000200000080000000c2080000ef
:10377c002600000082000000f908000000f9080093
:10378c000900000000020000fb08000000fb08001c
:10379c000e0201000000000000000000000000000c
:1037ac000602020000000000c2080000f808000039
:1037bc0006000000800000007008000052000000ad
:1037cc008200000030313200333435003637380097
:1037dc003941420043444500460030003132330049
:1037ec003435360037383900616263006465660031
:1037fc0000286e00756c6c002900000001000000b0
:10380c00000a00000000640000000000e803000053
:10381c00001027000000a0008601000040420f00ad
:10382c000080960098000000e1f5050000ca9a009f
:08383c003b0000000000000049
:020000040000fa
:103844000000fa00e1f807000080fa00000006001a
:0c3854000000fa000080fa0000000600ee
:020000040000fa
:020000040015e5
:047e0000ffff000080
:020000040000fa
:020000040015e5
:047e2000ff1f000040
:020000040000fa
:020000040015e5
:047e30000bffff0045
:020000040000fa
:020000040015e5
:047e3800beffff008a
:020000040000fa
:020000040015e5
:047e40009fffff00a1
:020000040000fa
:020000040015e5
:047e4800fbffff003d
:020000040000fa
:020000040015e5
:047e5000deffff0052
:020000040000fa
:020000040015e5
:047e5800efffff0039
:00000001FF
